:100000000C9489000C94B1000C94B1000C94590329
:100010000C9459030C9459030C94B1000C94B10046
:100020000C94B1000C94B1000C94B1000C94B1008C
:100030000C94B1000C94E9030C94B1000C94B10041
:100040000C940F030C94B1000C9460020C943A02CF
:100050000C94B1000C94B1000C94B1000C94B1005C
:100060000C94B1000C94B10074089F0AA60A750D97
:10007000DF0D650EAC0EAC0E9D0EA10EEA0DF10D5E
:10008000090EFB0DFF0DFF0D030E030E090E090EE9
:10009000F70DFB0DFB0DFF0DFF0D030E030E090EFB
:1000A000090EF70DFB0DFB0DFF0DFF0D030E030EEB
:1000B000090E0F0E000000080002010000030407F3
:1000C00000000000000000000000000025002800E3
:1000D0002B0000000000240027002A000000000080
:1000E000230026002900040404040404040402027A
:1000F00002020202030303030303010204081020A7
:100100004080010204081020010204081020470F5B
:10011000370F11241FBECFEFD8E0DEBFCDBF11E0F7
:10012000A0E0B1E0E2E3F7E202C005900D92A8344E
:10013000B107D9F723E0A8E4B1E001C01D92A035D2
:10014000B207E1F710E0C8E8D0E004C02197FE0153
:100150000E946611C738D107C9F70E9441060C9466
:100160008C130C940000FC01538D448D252F30E03E
:10017000842F90E0821B930B541710F0CF960895B4
:1001800001970895FC01918D828D981761F0828D01
:10019000DF01A80FB11D5D968C91928D9F5F9F73BB
:1001A000928F90E008958FEF9FEF0895FC01918D5D
:1001B000828D981731F0828DE80FF11D858D90E0CA
:1001C00008958FEF9FEF0895FC01918D228D892F67
:1001D00090E0805C9F4F821B91098F73992708954F
:1001E00081E492E00E94E40021E0892B09F420E000
:1001F000822F0895FC01848DDF01A80FB11DA35A41
:10020000BF4F2C91848D90E001968F739927848F36
:10021000A689B7892C93A089B1898C9180648C932D
:10022000938D848D981306C00288F389E02D808118
:100230008F7D80830895EF92FF920F931F93CF934A
:10024000DF93EC0181E0888F9B8D8C8D981305C026
:10025000E889F989808185FD24C0F62E0B8D10E098
:100260000F5F1F4F0F731127E02E8C8DE8120CC00B
:100270000FB607FCFACFE889F989808185FFF5CFB1
:10028000CE010E94FA00F1CF8B8DFE01E80FF11D27
:10029000E35AFF4FF0820B8FEA89FB8980818062ED
:1002A00007C0EE89FF896083E889F98980818064CD
:1002B000808381E090E0DF91CF911F910F91FF90BB
:1002C000EF900895CF93DF93EC01888D8823C9F0D8
:1002D000EA89FB89808185FD05C0A889B9898C914F
:1002E00086FD0FC00FB607FCF5CF808185FFF2CFEA
:1002F000A889B9898C9185FFEDCFCE010E94FA00C3
:10030000E7CFDF91CF91089580E090E0892B29F02D
:100310000E94F00081110C940000089520914A0180
:1003200030914B012817390771F490914801809161
:100330004901981741F0E0914801F0E0EA59FE4F79
:10034000808190E008958FEF9FEF089508951F93A7
:10035000CF93DF93DC015C962D913C915D97211545
:10036000310539F481E090E013969C938E931297B7
:100370003DC05196ED91FC91529750969C915097AB
:10038000892F80951FB75E964C915E9741FB77272A
:1003900070F941FD6095F8944081772311F0492B65
:1003A00001C048234083E9012197F1F748E05081DB
:1003B00060FF02C0592B01C058235083E9012197E7
:1003C000F1F76695415099F7772321F090818923C1
:1003D000808303C08081982B90831FBF5C968D9192
:1003E0009C915D970197F1F721E030E0C901DF9121
:1003F000CF911F91089520914A0130914B01281708
:10040000390771F4809149012091480190E0805CA6
:100410009F4F821B910960E470E00E945211089581
:1004200080E090E0089520914A0130914B01281717
:100430003907B9F49091480180914901981789F0E2
:10044000E0914801F0E0EA59FE4F80812091480197
:1004500030E02F5F3F4F2F7333272093480190E008
:1004600008958FEF9FEF0895089580E090E008953C
:100470000E9477131F920F920FB60F9211242F93A1
:100480003F934F935F936F937F938F939F93AF931C
:10049000BF93EF93FF9381E492E00E94FA00FF91F3
:1004A000EF91BF91AF919F918F917F916F915F91EC
:1004B0004F913F912F910F900FBE0F901F90189565
:1004C0001F920F920FB60F9211242F938F939F9329
:1004D000EF93FF93E0915102F09152028081E091FD
:1004E0005702F091580282FD12C0908180915A0209
:1004F0008F5F8F7320915B02821751F0E0915A0257
:10050000F0E0EF5BFD4F958F80935A0201C0808130
:10051000FF91EF919F918F912F910F900FBE0F90B0
:100520001F90189590E0FC01EC54FF4F3491FC01B2
:10053000E650FF4F2491FC01EA51FF4FE491EE2376
:1005400009F43BC0332339F1333091F038F43130C2
:10055000A9F0323001F584B58F7D12C0373091F0AB
:100560003830A1F03430B9F4809180008F7D03C021
:10057000809180008F77809380000DC084B58F7745
:1005800084BD09C08091B0008F7703C08091B00016
:100590008F7D8093B000F0E0EE0FFF1FE853FF4F18
:1005A000A591B4918FB7F894EC91611103C0209597
:1005B0002E2301C02E2B2C938FBF08953FB7F894A4
:1005C0008091AB019091AC01A091AD01B091AE01D1
:1005D00026B5A89B05C02F3F19F00196A11DB11D9E
:1005E0003FBFBA2FA92F982F8827820F911DA11DD9
:1005F000B11DBC01CD0142E0660F771F881F991F16
:100600004A95D1F708952FB7F8946091A70170919A
:10061000A8018091A9019091AA012FBF08951F926E
:100620000F920FB60F9211242F933F938F939F93A6
:10063000AF93BF938091A7019091A801A091A901C8
:10064000B091AA013091A60123E0230F2D3720F4A9
:100650000196A11DB11D05C026E8230F0296A11D1C
:10066000B11D2093A6018093A7019093A801A093A8
:10067000A901B093AA018091AB019091AC01A09126
:10068000AD01B091AE010196A11DB11D8093AB01EA
:100690009093AC01A093AD01B093AE01BF91AF9127
:1006A0009F918F913F912F910F900FBE0F901F90B0
:1006B00018951F920F920FB60F9211242F933F930C
:1006C0004F935F936F937F938F939F93AF93BF935A
:1006D000EF93FF93E0914A01F0914B01309709F4B9
:1006E00051C0968DA685B785858591FF04C09C91E4
:1006F000892329F447C09C91892309F043C0A38929
:10070000B4899C918589809589238C938689978962
:100710000197F1F7608D718DA685B785558538E015
:1007200020E0CB010197F1F7822F90E09595879516
:10073000282F4C91452309F02068315091F7868D80
:1007400081FD20958091490190E001968F73992752
:1007500030914801381749F0A0914901B0E0AA59F9
:10076000BE4F2C938093490103C0868D8160868F94
:10077000828D938D0197F1F7A389B4899C91858926
:10078000892B8C93FF91EF91BF91AF919F918F91A6
:100790007F916F915F914F913F912F910F900FBE7D
:1007A0000F901F901895E0914A01F0914B01E817C6
:1007B000F90769F4A389B4899C9185898095892377
:1007C0008C9310924B0110924A0181E0089580E0D1
:1007D00008951F920F920FB60F9211242F933F93FB
:1007E0004F935F936F937F938F939F93AF93BF9339
:1007F000EF93FF9380E28093800010926F0010923D
:10080000AF01E0916401F0916501309711F07894A7
:100810000995FF91EF91BF91AF919F918F917F913A
:100820006F915F914F913F912F910F900FBE0F905D
:100830001F9018950F931F93922F2FE0291B32E1E1
:10084000639F20191124982F990F890F281B88E185
:10085000489FF0011124E055FE4F33E0239FC00173
:10086000112496958795E80FF91F20FF05C0808118
:10087000807F812B80830CC0C80124E096958795EA
:100880002A95E1F7808381818F700295007F082B84
:1008900001831F910F9108958F929F92BF92CF92E3
:1008A000DF92EF92FF920F931F93CF93DF931F92EC
:1008B000CDB7DEB76C017B014A011C141D041CF589
:1008C00000914C0110914D0164E070E080E090E0F7
:1008D0000E941D06462F64E070E080E090E04983AE
:1008E0000E941D06B62E64E070E080E090E00E9459
:1008F0001D06862F22E049816B2D0E941A0481E09B
:10090000C81AD108DACF1E141F041CF500914C013F
:1009100010914D0164E070E080E090E00E941D06BF
:10092000462F64E070E080E090E049830E941D065D
:10093000D62E64E070E080E090E00E941D06862FD5
:1009400021E049816D2D0E941A0481E0E81AF10826
:10095000DACF181419041CF500914C0110914D01C7
:1009600064E070E080E090E00E941D06462F64E0A5
:1009700070E080E090E049830E941D06F62E64E05E
:1009800070E080E090E00E941D06862F20E0498103
:100990006F2D0E941A0481E0881A9108DACF109214
:1009A0004F0110924E010F90DF91CF911F910F9147
:1009B000FF90EF90DF90CF90BF909F908F90089521
:1009C000FF920F931F93CF93DF93D0E0C0E0F12C01
:1009D000009154011091550120E04D2F6F2D8C2F67
:1009E0000E941A04F39484E0F812F2CFCF5FC4306F
:1009F00071F7DF5FD43051F7DF91CF911F910F91E5
:100A0000FF900895FF920F931F93CF93DF93D0E051
:100A1000C0E0F12C009152011091530121E04D2FC3
:100A20006F2D8C2F0E941A04F39484E0F812F2CFF9
:100A3000CF5FC43071F7DF5FD43051F7DF91CF91D2
:100A40001F910F91FF900895FF920F931F93CF93E3
:100A5000DF93D0E0C0E0F12C0091500110915101E2
:100A600022E04D2F6F2D8C2F0E941A04F39484E006
:100A7000F812F2CFCF5FC43071F7DF5FD43051F797
:100A8000DF91CF911F910F91FF900895CF92DF9248
:100A9000EF92FF920F931F93CF93DF936C017A0134
:100AA0008B01C0E0D0E0CE15DF0589F0D8016D9153
:100AB0008D01D601ED91FC910190F081E02DC601F0
:100AC0000995892B11F47E0102C02196ECCFC70154
:100AD000DF91CF911F910F91FF90EF90DF90CF901A
:100AE0000895E0EBF1E0CF014896E817F90738F4F4
:100AF000108211823396DF0111971C92F6CFFC0110
:100B000082E0E034F80779F70895282F8091AF014B
:100B100081113FC090E29093800090914B03992304
:100B200019F010924B0302C02D9A2D9830E098E1F5
:100B3000929FF001939FF00D1124E055FE4F2F5F1F
:100B40003F4F929FA001939F500D11249A01205571
:100B50003E4FE217F30798F490819EBD0DB407FE57
:100B6000FDCF91819EBD0DB407FEFDCF3396DF0111
:100B700011979C919EBD0DB407FEFDCFEACF91E089
:100B80009093AF0120EA20938000B09A90936F0079
:100B9000089581E008950F931F93CF93DF93EC01A5
:100BA00088819981009729F02A813B812617370790
:100BB00088F48B016F5F7F4F0E94AD12009761F048
:100BC000998388831B830A832C813D81232B11F415
:100BD000FC01108281E001C080E0DF91CF911F9184
:100BE0000F910895EF92FF920F931F93CF93DF938E
:100BF000EC017B018A01BA010E94CB052881398171
:100C000081110DC02115310519F0C9010E9415127D
:100C1000198218821D821C821B821A8206C01D83C3
:100C20000C83B701C9010E948513CE01DF91CF91DA
:100C30001F910F91FF90EF900895CF93DF9300D015
:100C400000D0CDB7DEB7611571058105910579F04A
:100C50009B01AC0169833A834B835C830E94AA1099
:100C600029813A814B815C810E94DA1003C060E0E7
:100C700070E0CB010F900F900F900F90DF91CF910C
:100C80000895CF93DF93CDB7DEB72E970FB6F894C4
:100C9000DEBF0FBECDBF789484B5826084BD84B5BD
:100CA000816084BD85B5826085BD85B5816085BD67
:100CB00080916E00816080936E001092810080911F
:100CC00081008260809381008091810081608093A7
:100CD0008100809180008160809380008091B100CC
:100CE00084608093B1008091B00081608093B000F7
:100CF00080917A00846080937A0080917A0082608B
:100D000080937A0080917A00816080937A0080914C
:100D10007A00806880937A001092C10010922203BA
:100D20001092230310922403109225031092E002E4
:100D30001092E1021092E2021092E3020E94030379
:100D40006B017C014B015C0128EB820E2BE0921EB3
:100D5000A11CB11C0E9403036C157D058E059F0527
:100D600028F086169706A806B906A0F781E492E057
:100D70009093210380932003E0915102F09152025D
:100D800082E08083E0914D02F0914E021082E0916A
:100D90004F02F091500280E1808310925902E0915D
:100DA0005502F091560286E08083E0915302F09163
:100DB0005402808180618083E0915302F09154025B
:100DC000808188608083E0915302F0915402808199
:100DD00080688083E0915302F091540280818F7D7E
:100DE00080830E9403036093E0027093E10280938A
:100DF000E2029093E3028091200390912103DC01B1
:100E0000ED91FC910280F381E02D41E150E065E33A
:100E100071E009950E9403036B017C014B015C01A9
:100E2000BAE08B0E911CA11CB11C0E9403036C152F
:100E30007D058E059F0528F086169706A806B9063B
:100E4000A0F781E08093F4029FE397B998B9219AC3
:100E5000229A539A2A9A239A259A229A2D988DBDDE
:100E600080E58CBDE0EBF1E0CF014896E817F9078B
:100E700038F4108211823396DF0111971C92F6CF5D
:100E8000FC018054924081F780E00E94850580E259
:100E90008093800010926F001092AF01299A2998D8
:100EA0008093800080E18093810081E090E09093C6
:100EB00089008093880082E090E090938B0080937B
:100EC0008A0080E090E2909387008093860083E21E
:100ED0008093B00088E08093B1001092B40083E06A
:100EE0008093B3008091B10081608093B1008091C4
:100EF000810081608093810080E00E9485058AEFF7
:100F00009FE090934D0180934C0190935101809309
:100F10005001909353018093520190935501809317
:100F200054011092560110925B010E9471051092BB
:100F30004703109246031092450310924403109207
:100F40004303109242038DE991E09093490380930B
:100F5000480390913803963108F057C02DEB30E0EC
:100F600030934303209342032BE931E03093450350
:100F7000209344032CE231E030934703209346034F
:100F800020916800983050F031E09E3008F430E055
:100F900081E001C0880F3A95EAF701C084E0822B16
:100FA00080936800983038F09E3040F0963148F0D9
:100FB00020E030E008C02DE630E005C02BE630E050
:100FC00002C02CE630E03093400320933F0398307A
:100FD00030F481E001C0880F9A95EAF70EC0292FFE
:100FE00030E09E3018F42850310902C02E503109EB
:100FF00081E001C0880F2A95EAF780934103809130
:101000004803909149030197F1F78091460390912D
:101010004703892B21F180914A0190914B0133E0E4
:101020008C329307E1F0009711F00E94D303809176
:101030004A038E7F80934A0310924901109248011F
:101040008CE293E090934B0180934A01E0913F033F
:10105000F0914003908180914103892B80830E940D
:10106000DE020091600110916101209162013091D6
:101070006301DC01CB01801B910BA20BB30B8C3AFB
:101080009D40A105B10508F4AFC60E94DE02609341
:1010900060017093610180936201909363010E94EB
:1010A000030300915C0110915D0120915E0130917C
:1010B0005F01DC01CB01801B910BA20BB30B8C32C7
:1010C0009140A105B10508F465C60E9471055090D4
:1010D0005B01852D90E08A30910508F035C6FC0152
:1010E000EC5CFF4F0C946611E0904E01F0904F01C4
:1010F000E114F10431F48FE791E0909302018093C1
:101100000101C701A0E4EA16F10414F08FE390E0B6
:101110005C0197FF03C0BFE0AB0EB11C04E0B594C7
:10112000A7940A95E1F760E170E00E9452113C013A
:10113000C12CD12CAC14BD04DCF1812C912C681491
:101140007904A4F000914C0110914D01C40166E0B6
:1011500070E00E945211962F22E04C2D682F892FAB
:101160000E941A042FEF821A920AE9CFC114D10407
:10117000D9F0812C912C452C352C00914C011091EB
:101180004D0122E0482D642D832D0E941A043394D2
:1011900036E03312F2CF43944312EECF8FEF881A2A
:1011A000980A8C149D043CF39FEFC91AD90AC2CF48
:1011B000A0E4EA16F10408F4CFC5C701CF97803444
:1011C000910514F08FE390E04C0197FF03C02FE0EE
:1011D000820E911C14E0959487941A95E1F760E1D2
:1011E00070E00E9452113C01C12CD12C8C149D0442
:1011F0002CF4B0E8EB16F104E0F5AEC5A12CB12C4F
:101200006A147B04A4F000914C0110914D01B501CA
:1012100063707727C501959587959595879521E00A
:101220004C2D0E941A043FEFA31AB30AE9CFC11450
:10123000D104D9F0A12CB12C452C352C00914C01B6
:1012400010914D0121E04A2D642D832D0E941A0436
:10125000339484E03812F2CF43944812EECF9FEFDC
:10126000A91AB90AAC14BD043CF3AFEFCA1ADA0AE2
:10127000BDCFC7018F5791098034910514F08FE3DA
:1012800090E04C0197FF03C02FE0820E911CA4E078
:1012900095948794AA95E1F760E170E00E9452115D
:1012A0003C01C12CD12C8C149D042CF4B0ECEB1619
:1012B000F104E0F551C5A12CB12C6A147B04A4F013
:1012C00000914C0110914D01B50163707727C50164
:1012D000959587959595879520E04C2D0E941A0449
:1012E0003FEFA31AB30AE9CFC114D104D9F0A12C5E
:1012F000B12C452C352C00914C0110914D0120E072
:101300004A2D642D832D0E941A04339484E03812F0
:10131000F2CF43944812EECF9FEFA91AB90AAC144A
:10132000BD043CF3AFEFCA1ADA0ABDCFC7018F5B29
:1013300091098034910514F08FE390E04C0197FF00
:1013400003C02FE0820E911CE4E095948794EA9507
:10135000E1F760E170E00E9452113C01C12CD12CF8
:101360008C149D0434F4BFEFEB16F10409F0C0F5C2
:10137000F3C4A12CB12C6A147B0494F0B501637002
:101380007727C501959587959595879500E010E09D
:1013900022E04C2D0E941A043FEFA31AB30AEBCFB0
:1013A000C114D104C9F0A12CB12C452C352C00E07E
:1013B00010E022E04A2D642D832D0E941A043394FC
:1013C00084E03812F4CF43944812F0CF9FEFA91A6B
:1013D000B90AAC14BD044CF3AFEFCA1ADA0AC0CF95
:1013E000C7018F5F91098034910514F08FE390E07D
:1013F0004C0197FF03C02FE0820E911C54E095949E
:1014000087945A95E1F760E170E00E9452113C0127
:10141000C12CD12C8C149D0434F4B0E4EB16B1E053
:10142000FB06C0F599C4A12CB12C6A147B0494F07E
:10143000B50163707727C501959587959595879533
:1014400000E010E021E04C2D0E941A043FEFA31AA7
:10145000B30AEBCFC114D104C9F0A12CB12C452C97
:10146000352C00E010E021E04A2D642D832D0E94F0
:101470001A04339484E03812F4CF43944812F0CF26
:101480009FEFA91AB90AAC14BD044CF3AFEFCA1A06
:10149000DA0AC0CFC7018F5391408034910514F010
:1014A0008FE390E05C0197FF03C0BFE0AB0EB11C7F
:1014B00034E0B594A7943A95E1F760E170E00E94BA
:1014C00052114C01E12CF12CAE14BF040CF444C4B5
:1014D000C12CD12C8C149D0494F0B6016370772735
:1014E000C601959587959595879500E010E020E0D9
:1014F0004E2D0E941A042FEFC21AD20AEBCFE1142C
:10150000F104C9F0C12CD12C752C652C00E010E041
:1015100020E04C2D672D862D0E941A04639434E040
:101520006312F4CF73947312F0CF8FEFC81AD80AF6
:10153000CE14DF044CF39FEFE91AF90AC5CF4EE150
:1015400050E06EE170E08EE190E004C4E090540160
:10155000F0905501C0905201D0905301A0905001DD
:10156000B090510180914E0190914F0182309105D0
:1015700009F4D4C038F4009709F431C1019709F493
:101580000EC1EAC38430910509F446C008F464C072
:10159000059709F0E1C3C501B7FC0396DC01B595D9
:1015A000A795B595A795BC83AB83C601D7FC0396D9
:1015B0009C0135952795359527953E832D83C70149
:1015C000F7FC0396DC01B595A795B595A795B88767
:1015D000AF834501B7FE03C0B7E08B0E911CA3E0BB
:1015E00095948794AA95E1F73601D7FE03C027E0CA
:1015F000620E711CF3E075946794FA95E1F7270188
:10160000F7FE03C037E0430E511CE3E055944794C6
:10161000EA95E1F7212C1AC24501B7FE03C083E029
:10162000880E911C95948794959487943601D7FEE3
:1016300003C093E0690E711C759467947594679468
:101640002701F7FE03C0A3E04A0E511C55944794AE
:1016500055944794212CF8C1C501B7FC03969C0111
:1016600035952795359527953C832B83C601D7FC67
:101670000396DC01B595A795B595A795BE83AD8377
:10168000C701F7FC03969C0135952795359527955D
:1016900038872F83C501B7FC0796DC0183E0B59539
:1016A000A7958A95E1F7BA87A987C601D7FC07965F
:1016B0009C0103E0359527950A95E1F73C872B8738
:1016C000C701F7FC0796DC0113E0B595A7951A95BD
:1016D000E1F7BE87AD871501B7FE03C0BFE02B0E53
:1016E000311CB4E035942794BA95E1F74601D7FE52
:1016F00003C02FE0820E911CA4E095948794AA95D4
:10170000E1F73701F7FE03C03FE0630E711CF4E020
:1017100075946794FA95E1F7412C62C1C501B7FC55
:101720000396DC01B595A795B595A795BC83AB83CA
:10173000C601D7FC03969C013595279535952795CD
:101740003E832D83C701F7FC0396DC01B595A79571
:10175000B595A795B887AF834501B7FE03C0B7E03D
:101760008B0E911C53E0959487945A95E1F73601BE
:10177000D7FE03C027E0620E711C43E075946794A6
:101780004A95E1F72701F7FE03C037E0430E511CED
:1017900033E0559447943A95E1F7212CBDC04501BB
:1017A000B7FE03C083E0880E911C959487949594AE
:1017B00087943601D7FE03C093E0690E711C7594BF
:1017C0006794759467942701F7FE03C0A3E04A0E5F
:1017D000511C5594479455944794212C51C0812C09
:1017E000912C850122E043E0692D882D0E941A0486
:1017F000860121E043E0692D882D0E941A048701AB
:1018000020E043E0692D882D0E941A049394B4E0EF
:101810009B12E7CF83948B12E3CF9EC2850122E017
:1018200042E0632D822D0E941A04860121E042E0ED
:10183000632D822D0E941A04870120E042E0632D6F
:10184000822D0E941A04840122E043E0632D822D40
:101850000E941A04830121E043E0632D822D0E943F
:101860001A04820120E043E0632D822D0E941A04B5
:10187000339424E03212D2CF2394221609F46CC29E
:10188000312CCCCF850122E041E0632D822D0E94D6
:101890001A04860121E041E0632D822D0E941A0482
:1018A000870120E041E0632D822D0E941A040B8104
:1018B0001C8122E042E0632D822D0E941A040D81DA
:1018C0001E8121E042E0632D822D0E941A040F81C7
:1018D000188520E042E0632D822D0E941A048401C5
:1018E00022E043E0632D822D0E941A04830121E04F
:1018F00043E0632D822D0E941A04820120E043E020
:10190000632D822D0E941A04339434E03312BACF2F
:101910002394231609F420C2312CB4CF850122E090
:1019200040E0652D842D0E941A04860121E040E0EC
:10193000652D842D0E941A04870120E040E0652D6A
:10194000842D0E941A040B811C8122E041E0652D48
:10195000842D0E941A040D811E8121E041E0652D35
:10196000842D0E941A040F81188520E041E0652D26
:10197000842D0E941A0409851A8522E042E0652D13
:10198000842D0E941A040B851C8521E042E0652D00
:10199000842D0E941A040D851E8520E042E0652DED
:1019A000842D0E941A04810122E043E0652D842DDC
:1019B0000E941A04840121E043E0652D842D0E94D9
:1019C0001A04830120E043E0652D842D0E941A044F
:1019D000539484E05812A2CF4394481609F4BCC132
:1019E000512C9CCF850122E041E0632D822D0E9485
:1019F0001A04860121E041E0632D822D0E941A0421
:101A0000870120E041E0632D822D0E941A048401A9
:101A100022E040E0632D822D0E941A04830121E020
:101A200040E0632D822D0E941A04820120E040E0F4
:101A3000632D822D0E941A04339494E03912D2CF80
:101A40002394291609F488C1312CCCCF312C85017F
:101A500022E042E0632D822D0E941A04860121E0DB
:101A600042E0632D822D0E941A04870120E042E0AB
:101A7000632D822D0E941A040B811C8122E041E01B
:101A8000632D822D0E941A040D811E8121E041E008
:101A9000632D822D0E941A040F81188520E041E0F9
:101AA000632D822D0E941A04840122E040E0632D00
:101AB000822D0E941A04830121E040E0632D822DD3
:101AC0000E941A04820120E040E0632D822D0E94D2
:101AD0001A043394A4E03A12BACF23942A12B6CF50
:101AE00010924F0110924E0137C180914E0190919A
:101AF0004F01009799F42FE130E0309302012093D9
:101B00000101109251011092500110925301109254
:101B1000520180914C0190914D0117C08B3091057D
:101B2000C8F4809150019091510180579E4F90933D
:101B30005101809350018091540190915501803959
:101B400031E09307ACF18059914090935501809317
:101B500054012EC085319105A8F4809152019091D5
:101B6000530180579E4F909353018093520180916F
:101B7000500190915101805991409093510180936F
:101B8000500116C04F97A0F48091540190915501D7
:101B900080579E4F9093550180935401809152013C
:101BA0009091530180599140909353018093520139
:101BB0000E9424050E9402050E94E004CDC0E0912D
:101BC0004E01F0914F01EC31F10590F5E25CFF4FD1
:101BD0000C94661181E0809359018093580182E052
:101BE00003C08091570181508093570121C080919B
:101BF00057018F5FF9CF80915801815007C08091C4
:101C00005901815009C0809158018F5F809358011C
:101C10000FC0809159018F5F8093590109C0809155
:101C2000580181508093580110924F0110924E013B
:101C300060905901712C80905801912CE0905701CF
:101C4000F12CC70101979C838B8314019FEF291A04
:101C5000390A2301AFEF4A1A5A0A8B819C81E81690
:101C6000F9060CF479C064012C143D0454F15301BD
:101C70004A145B0414F1009150011091510122E0CB
:101C80004E2D6A2D8C2D0E941A0400915201109144
:101C9000530121E04E2D6A2D8C2D0E941A040091D3
:101CA00054011091550120E04E2D6A2D8C2D0E947B
:101CB0001A04BFEFAB1ABB0ADBCF2FEFC21AD20A4E
:101CC000D3CF31E0E31AF108C8CFE12CF12CD12CAD
:101CD00063E070E080E090E00E941D0661157105F0
:101CE00031F400914C0110914D0122E011C061309E
:101CF000710531F400914C0110914D0121E008C0B3
:101D00006230710551F400914C0110914D0120E0B9
:101D10004E2D6F2D8D2D0E941A04D39494E0D9126C
:101D2000D7CFF394F912D3CF10924F0110924E01F6
:101D3000E394A4E0EA12CACF0FC00E9402050E94F9
:101D4000E0040E94240508C040E050E060E070E03C
:101D500081E090E00E944C040E94030360935C01C8
:101D600070935D0180935E0190935F0180914E01BD
:101D700090914F01019690934F0180934E012091D5
:101D80000101309102018217930720F010924F0158
:101D900010924E01F0905A018FE388B98F2D0E9466
:101DA00085050E94DE024B015C010E94DE02DC011F
:101DB000CB0188199909AA09BB09883E9340A1055E
:101DC000B10598F3EF2DF0E0E35FFE4F60E0808116
:101DD0000E94920280915A0190E0019666E070E0C4
:101DE0000E94521180935A018CE293E00E94FB0101
:101DF000892BD1F140E050E066E471E086E293E0A7
:101E00000E94F2058CE293E00E94FB01892B61F1B4
:101E10008CE293E00E941302809300018A3321F147
:101E200089831A82E0902A03F0902B033FEFE31A94
:101E3000F30AB70186E293E00E94CB05882311F3F1
:101E4000209126033091270380912A0390912B0340
:101E5000BE016F5F7F4F820F931F0E948513F09228
:101E60002B03E0922A03CECF0E948401F8C8809110
:101E70002603909127030E94151287E291E0909328
:101E80002D0380932C038CE293E00C94D303CF9327
:101E9000DF93109244021092430288EE93E0A0E098
:101EA000B0E08093450290934602A0934702B0931E
:101EB000480225E131E0309342022093410225ECB3
:101EC00030E030934E0220934D0224EC30E030930A
:101ED000500220934F0220EC30E0309352022093C6
:101EE000510221EC30E0309354022093530222EC53
:101EF00030E0309356022093550226EC30E03093C8
:101F000058022093570210925A0210925B021092CC
:101F10005C0210925D021092E4021092E5021092AF
:101F2000E6021092E7021092E8021092E902109283
:101F3000EA021092EB021092EC021092ED02109263
:101F4000EE021092EF021092F0021092F102109243
:101F5000F2021092F30210922F0310922E0380933C
:101F6000300390933103A0933203B093330387E29D
:101F700091E090932D0380932C03109243031092D1
:101F800042031092450310924403109247031092AB
:101F90004603109249031092480360914A036E7FF2
:101FA0006D7F60934A036695617081E068278CE0DD
:101FB0000E949202E6E0F1E02491E2EFF0E08491E9
:101FC000882399F090E0880F991FFC01EE52FF4F93
:101FD000A591B491FC01E853FF4F859194918FB77F
:101FE000F894EC91E22BEC938FBFE6E0F1E0E49102
:101FF000E0933C03E2EFF0E0E491F0E0EE0FFF1F2E
:10200000E853FF4F8591949190933E0380933D0355
:10201000E2E0F1E02491EEEEF0E084918823C1F05B
:1020200090E0880F991FFC01EE52FF4FC591D491AB
:10203000FC01E853FF4FA591B4919FB7F8948881B4
:10204000E22FE0958E2388838C91E823EC939FBF49
:1020500080914A0381FD04C061E088E00E94920201
:1020600088E080933803E2E0F1E0E491E093390303
:10207000EEEEF0E0E491F0E0EE0FFF1FE452FF4FD0
:102080008591949190933B0380933A031092270398
:1020900010922603109229031092280310922B030A
:1020A00010922A0340E050E066E471E086E293E09B
:1020B000DF91CF910C94F2058F929F92AF92BF92D5
:1020C000CF92DF92EF92FF92CF93DF93EC01688182
:1020D00079818A819B81611571058105910521F4C2
:1020E00064E279ED8BE597E02DE133EF41E050E0DC
:1020F0000E94DA1049015A019B01AC01A7EAB1E440
:102100000E94F9106B017C01ACEEB4EFA5019401C3
:102110000E940711DC01CB018C0D9D1DAE1DBF1D62
:10212000B7FF03C00197A109B04888839983AA83A8
:10213000BB83BC01CD019F77DF91CF91FF90EF90E2
:10214000DF90CF90BF90AF909F908F9008950E94A6
:102150005C10089583E091E00E945C100895609304
:102160000301709304018093050190930601089583
:10217000A1E21A2EAA1BBB1BFD010DC0AA1FBB1F8B
:10218000EE1FFF1FA217B307E407F50720F0A21BFD
:10219000B30BE40BF50B661F771F881F991F1A946A
:1021A00069F760957095809590959B01AC01BD0194
:1021B000CF010895052E97FB1EF400940E94F110A4
:1021C00057FD07D00E94B81007FC03D04EF40C94C2
:1021D000F11050954095309521953F4F4F4F5F4FEF
:1021E000089590958095709561957F4F8F4F9F4F83
:1021F00008950E944311A59F900DB49F900DA49F38
:10220000800D911D11240895B7FF0C94F9100E94C0
:10221000F910821B930B08952F923F924F925F9279
:102220006F927F928F929F92AF92BF92CF92DF92E6
:10223000EF92FF920F931F93CF93DF93CDB7DEB74B
:10224000CA1BDB0B0FB6F894DEBF0FBECDBF0994DF
:102250002A88398848885F846E847D848C849B8436
:10226000AA84B984C884DF80EE80FD800C811B8144
:10227000AA81B981CE0FD11D0FB6F894DEBF0FBE73
:10228000CDBFED010895A29FB001B39FC001A39FF0
:10229000700D811D1124911DB29F700D811D11249F
:1022A000911D089597FB072E16F4009407D077FD33
:1022B00009D00E946C1107FC05D03EF490958195E1
:1022C0009F4F0895709561957F4F0895EE0FFF1F02
:1022D0000590F491E02D0994AA1BBB1B51E107C0A6
:1022E000AA1FBB1FA617B70710F0A61BB70B881FA6
:1022F000991F5A95A9F780959095BC01CD01089535
:10230000CF93DF938230910510F482E090E0E0916A
:102310004E03F0914F0320E030E0C0E0D0E0309772
:1023200011F14081518148175907C0F048175907EA
:1023300061F482819381209719F09B838A832BC05B
:1023400090934F0380934E0326C02115310519F059
:102350004217530718F49A01BE01DF01EF01028012
:10236000F381E02DDCCF2115310509F1281B390B54
:102370002430310590F412968D919C91139761153C
:10238000710521F0FB019383828304C090934F0376
:1023900080934E03FD01329644C0FD01E20FF31F0E
:1023A00081939193225031092D933C933AC020910F
:1023B0004C0330914D03232B41F4209109013091BE
:1023C0000A0130934D0320934C0320910701309173
:1023D00008012115310541F42DB73EB740910B019D
:1023E00050910C01241B350BE0914C03F0914D03EF
:1023F000E217F307A0F42E1B3F0B2817390778F0DC
:10240000AC014E5F5F4F2417350748F04E0F5F1F3A
:1024100050934D0340934C038193919302C0E0E0AD
:10242000F0E0CF01DF91CF9108950F931F93CF93E9
:10243000DF93009709F48CC0FC013297138212825B
:1024400000914E0310914F030115110581F4208175
:102450003181820F931F20914C0330914D03281737
:10246000390779F5F0934D03E0934C0371C0D8011F
:1024700040E050E0AE17BF0750F412962D913C910A
:102480001397AD012115310509F1D901F3CF9D0154
:10249000DA013383228360817181860F971F82174F
:1024A000930769F4EC0128813981260F371F2E5FCD
:1024B0003F4F318320838A819B8193838283452B85
:1024C00029F4F0934F03E0934E0342C01396FC931C
:1024D000EE931297ED01499159919E01240F351FFA
:1024E000E217F30771F480819181840F951F0296A2
:1024F00011969C938E938281938113969C938E93D5
:102500001297E0E0F0E0D80112968D919C9113971C
:10251000009719F0F8018C01F6CF8D919C919801EC
:102520002E5F3F4F820F931F20914C0330914D033C
:102530002817390769F4309729F410924F03109245
:102540004E0302C01382128210934D0300934C037A
:10255000DF91CF911F910F910895A0E0B0E0E3EBE0
:10256000F2E10C941011EC01009721F4CB010E94D0
:102570008011B8C0FC01E60FF71F9C012250310901
:10258000E217F30708F4ACC0D9010D911C91119723
:1025900006171707B0F00530110508F49FC0C801F1
:1025A00004978617970708F499C002501109061B73
:1025B000170B019311936D937C93CF010E94151219
:1025C0008DC05B01A01AB10A4C01800E911EA09132
:1025D0004E03B0914F0340E050E0E12CF12C1097F6
:1025E00009F44AC0A815B905D1F56D907C901197F2
:1025F000630182E0C80ED11CCA14DB0480F1A30180
:102600004A195B096A0182E0C80ED11C1296BC907F
:1026100012971396AC91B5E0CB16D10440F0B2827C
:10262000A38351834083D9016D937C930AC00E5FCD
:102630001F4FC301800F911FF90191838083EB2D00
:10264000FA2FE114F10431F0D7011396FC93EE93C5
:10265000129744C0F0934F03E0934E033FC08D9117
:102660009C9111974817590708F4AC017D01129607
:102670000D90BC91A02DB3CF80914C0390914D0350
:1026800088159905E1F446175707C8F480910701AA
:1026900090910801009741F48DB79EB740910B01CE
:1026A00050910C01841B950BE817F907C8F4F093BF
:1026B0004D03E0934C03F901718360830FC0CB019C
:1026C0000E9480117C01009759F0A801BE010E9470
:1026D0007C13CE010E941512C70104C0CE0102C0B6
:1026E00080E090E0CDB7DEB7EEE00C942C1181E0F5
:1026F00090E0F8940C948C13FB01DC0102C0019073
:102700000D9241505040D8F70895FB01DC01019033
:102710000D920020E1F7089510E0C8E8D0E004C071
:10272000FE010E9466112196C938D107C9F7F894B5
:02273000FFCFD9
:1027320020900101000000000050038000111210DF
:1027420013000000001B014605B3006201E400C251
:1027520000D60000000000A70146053502A601FBD5
:102762000113028E01564D4450565F317C315F5643
:082772004D4450560D0A000011
:00000001FF
