:100000000C9489000C94B1000C94B1000C94590329
:100010000C9459030C9459030C94B1000C94B10046
:100020000C94B1000C94B1000C94B1000C94B1008C
:100030000C94B1000C94E9030C94B1000C94B10041
:100040000C940F030C94B1000C9460020C943A02CF
:100050000C94B1000C94B1000C94B1000C94B1005C
:100060000C94B1000C94B10074089F0AA60A750D97
:10007000DF0D650EAC0EAC0E9D0EA10EEA0DF10D5E
:10008000090EFB0DFF0DFF0D030E030E090E090EE9
:10009000F70DFB0DFB0DFF0DFF0D030E030E090EFB
:1000A000090EF70DFB0DFB0DFF0DFF0D030E030EEB
:1000B000090E0F0E000000080002010000030407F3
:1000C00000000000000000000000000025002800E3
:1000D0002B0000000000240027002A000000000080
:1000E000230026002900040404040404040402027A
:1000F00002020202030303030303010204081020A7
:1001000040800102040810200102040810204B0F57
:100110003B0F11241FBECFEFD8E0DEBFCDBF11E0F3
:10012000A0E0B1E0EAE3F7E202C005900D92A4344A
:10013000B107D9F723E0A4E4B1E001C01D92AC34CB
:10014000B207E1F710E0C8E8D0E004C02197FE0153
:100150000E946A11C738D107C9F70E9441060C9462
:1001600090130C940000FC01538D448D252F30E03A
:10017000842F90E0821B930B541710F0CF960895B4
:1001800001970895FC01918D828D981761F0828D01
:10019000DF01A80FB11D5D968C91928D9F5F9F73BB
:1001A000928F90E008958FEF9FEF0895FC01918D5D
:1001B000828D981731F0828DE80FF11D858D90E0CA
:1001C00008958FEF9FEF0895FC01918D228D892F67
:1001D00090E0805C9F4F821B91098F73992708954F
:1001E0008DE392E00E94E40021E0892B09F420E0F5
:1001F000822F0895FC01848DDF01A80FB11DA35A41
:10020000BF4F2C91848D90E001968F739927848F36
:10021000A689B7892C93A089B1898C9180648C932D
:10022000938D848D981306C00288F389E02D808118
:100230008F7D80830895EF92FF920F931F93CF934A
:10024000DF93EC0181E0888F9B8D8C8D981305C026
:10025000E889F989808185FD24C0F62E0B8D10E098
:100260000F5F1F4F0F731127E02E8C8DE8120CC00B
:100270000FB607FCFACFE889F989808185FFF5CFB1
:10028000CE010E94FA00F1CF8B8DFE01E80FF11D27
:10029000E35AFF4FF0820B8FEA89FB8980818062ED
:1002A00007C0EE89FF896083E889F98980818064CD
:1002B000808381E090E0DF91CF911F910F91FF90BB
:1002C000EF900895CF93DF93EC01888D8823C9F0D8
:1002D000EA89FB89808185FD05C0A889B9898C914F
:1002E00086FD0FC00FB607FCF5CF808185FFF2CFEA
:1002F000A889B9898C9185FFEDCFCE010E94FA00C3
:10030000E7CFDF91CF91089580E090E0892B29F02D
:100310000E94F00081110C94000008952091460184
:10032000309147012817390771F490914401809169
:100330004501981741F0E0914401F0E0EE59FE4F7D
:10034000808190E008958FEF9FEF089508951F93A7
:10035000CF93DF93DC015C962D913C915D97211545
:10036000310539F481E090E013969C938E931297B7
:100370003DC05196ED91FC91529750969C915097AB
:10038000892F80951FB75E964C915E9741FB77272A
:1003900070F941FD6095F8944081772311F0492B65
:1003A00001C048234083E9012197F1F748E05081DB
:1003B00060FF02C0592B01C058235083E9012197E7
:1003C000F1F76695415099F7772321F090818923C1
:1003D000808303C08081982B90831FBF5C968D9192
:1003E0009C915D970197F1F721E030E0C901DF9121
:1003F000CF911F9108952091460130914701281710
:10040000390771F4809145012091440190E0805CAE
:100410009F4F821B910960E470E00E94561108957D
:1004200080E090E00895209146013091470128171F
:100430003907B9F49091440180914501981789F0EA
:10044000E0914401F0E0EE59FE4F8081209144019B
:1004500030E02F5F3F4F2F7333272093440190E00C
:1004600008958FEF9FEF0895089580E090E008953C
:100470000E947B131F920F920FB60F9211242F939D
:100480003F934F935F936F937F938F939F93AF931C
:10049000BF93EF93FF938DE392E00E94FA00FF91E8
:1004A000EF91BF91AF919F918F917F916F915F91EC
:1004B0004F913F912F910F900FBE0F901F90189565
:1004C0001F920F920FB60F9211242F938F939F9329
:1004D000EF93FF93E0914D02F0914E028081E09105
:1004E0005302F091540282FD12C090818091560215
:1004F0008F5F8F7320915702821751F0E09156025F
:10050000F0E0E35CFD4F958F8093560201C080813F
:10051000FF91EF919F918F912F910F900FBE0F90B0
:100520001F90189590E0FC01EC54FF4F3491FC01B2
:10053000E650FF4F2491FC01EA51FF4FE491EE2376
:1005400009F43BC0332339F1333091F038F43130C2
:10055000A9F0323001F584B58F7D12C0373091F0AB
:100560003830A1F03430B9F4809180008F7D03C021
:10057000809180008F77809380000DC084B58F7745
:1005800084BD09C08091B0008F7703C08091B00016
:100590008F7D8093B000F0E0EE0FFF1FE853FF4F18
:1005A000A591B4918FB7F894EC91611103C0209597
:1005B0002E2301C02E2B2C938FBF08953FB7F894A4
:1005C0008091A7019091A801A091A901B091AA01E1
:1005D00026B5A89B05C02F3F19F00196A11DB11D9E
:1005E0003FBFBA2FA92F982F8827820F911DA11DD9
:1005F000B11DBC01CD0142E0660F771F881F991F16
:100600004A95D1F708952FB7F8946091A30170919E
:10061000A4018091A5019091A6012FBF08951F927A
:100620000F920FB60F9211242F933F938F939F93A6
:10063000AF93BF938091A3019091A401A091A501D4
:10064000B091A6013091A20123E0230F2D3720F4B1
:100650000196A11DB11D05C026E8230F0296A11D1C
:10066000B11D2093A2018093A3019093A401A093B4
:10067000A501B093A6018091A7019091A801A09136
:10068000A901B091AA010196A11DB11D8093A701F6
:100690009093A801A093A901B093AA01BF91AF9133
:1006A0009F918F913F912F910F900FBE0F901F90B0
:1006B00018951F920F920FB60F9211242F933F930C
:1006C0004F935F936F937F938F939F93AF93BF935A
:1006D000EF93FF93E0914601F0914701309709F4C1
:1006E00051C0968DA685B785858591FF04C09C91E4
:1006F000892329F447C09C91892309F043C0A38929
:10070000B4899C918589809589238C938689978962
:100710000197F1F7608D718DA685B785558538E015
:1007200020E0CB010197F1F7822F90E09595879516
:10073000282F4C91452309F02068315091F7868D80
:1007400081FD20958091450190E001968F73992756
:1007500030914401381749F0A0914501B0E0AE59FD
:10076000BE4F2C938093450103C0868D8160868F98
:10077000828D938D0197F1F7A389B4899C91858926
:10078000892B8C93FF91EF91BF91AF919F918F91A6
:100790007F916F915F914F913F912F910F900FBE7D
:1007A0000F901F901895E0914601F0914701E817CE
:1007B000F90769F4A389B4899C9185898095892377
:1007C0008C93109247011092460181E0089580E0D9
:1007D00008951F920F920FB60F9211242F933F93FB
:1007E0004F935F936F937F938F939F93AF93BF9339
:1007F000EF93FF9380E28093800010926F0010923D
:10080000AB01E0916001F0916101309711F07894B3
:100810000995FF91EF91BF91AF919F918F917F913A
:100820006F915F914F913F912F910F900FBE0F905D
:100830001F9018950F931F93922F2FE0291B32E1E1
:10084000639F20191124982F990F890F281B88E185
:10085000489FF0011124E455FE4F33E0239FC0016F
:10086000112496958795E80FF91F20FF05C0808118
:10087000807F812B80830CC0C80124E096958795EA
:100880002A95E1F7808381818F700295007F082B84
:1008900001831F910F9108958F929F92BF92CF92E3
:1008A000DF92EF92FF920F931F93CF93DF931F92EC
:1008B000CDB7DEB76C017B014A011C141D041CF589
:1008C000009148011091490164E070E080E090E0FF
:1008D0000E941D06462F64E070E080E090E04983AE
:1008E0000E941D06B62E64E070E080E090E00E9459
:1008F0001D06862F22E049816B2D0E941A0481E09B
:10090000C81AD108DACF1E141F041CF50091480143
:100910001091490164E070E080E090E00E941D06C3
:10092000462F64E070E080E090E049830E941D065D
:10093000D62E64E070E080E090E00E941D06862FD5
:1009400021E049816D2D0E941A0481E0E81AF10826
:10095000DACF181419041CF50091480110914901CF
:1009600064E070E080E090E00E941D06462F64E0A5
:1009700070E080E090E049830E941D06F62E64E05E
:1009800070E080E090E00E941D06862F20E0498103
:100990006F2D0E941A0481E0881A9108DACF109214
:1009A0004B0110924A010F90DF91CF911F910F914F
:1009B000FF90EF90DF90CF90BF909F908F90089521
:1009C000FF920F931F93CF93DF93D0E0C0E0F12C01
:1009D000009150011091510120E04D2F6F2D8C2F6F
:1009E0000E941A04F39484E0F812F2CFCF5FC4306F
:1009F00071F7DF5FD43051F7DF91CF911F910F91E5
:100A0000FF900895FF920F931F93CF93DF93D0E051
:100A1000C0E0F12C00914E0110914F0121E04D2FCB
:100A20006F2D8C2F0E941A04F39484E0F812F2CFF9
:100A3000CF5FC43071F7DF5FD43051F7DF91CF91D2
:100A40001F910F91FF900895FF920F931F93CF93E3
:100A5000DF93D0E0C0E0F12C00914C0110914D01EA
:100A600022E04D2F6F2D8C2F0E941A04F39484E006
:100A7000F812F2CFCF5FC43071F7DF5FD43051F797
:100A8000DF91CF911F910F91FF900895CF92DF9248
:100A9000EF92FF920F931F93CF93DF936C017A0134
:100AA0008B01C0E0D0E0CE15DF0589F0D8016D9153
:100AB0008D01D601ED91FC910190F081E02DC601F0
:100AC0000995892B11F47E0102C02196ECCFC70154
:100AD000DF91CF911F910F91FF90EF90DF90CF901A
:100AE0000895ECEAF1E0CF014896E817F90738F4E9
:100AF000108211823396DF0111971C92F6CFFC0110
:100B000082E0EC33F80779F70895282F8091AB0144
:100B100081113FC090E29093800090914703992308
:100B200019F01092470302C02D9A2D9830E098E1F9
:100B3000929FF001939FF00D1124E455FE4F2F5F1B
:100B40003F4F929FA001939F500D11249A0124556D
:100B50003E4FE217F30798F490819EBD0DB407FE57
:100B6000FDCF91819EBD0DB407FEFDCF3396DF0111
:100B700011979C919EBD0DB407FEFDCFEACF91E089
:100B80009093AB0120EA20938000B09A90936F007D
:100B9000089581E008950F931F93CF93DF93EC01A5
:100BA00088819981009729F02A813B812617370790
:100BB00088F48B016F5F7F4F0E94B112009761F044
:100BC000998388831B830A832C813D81232B11F415
:100BD000FC01108281E001C080E0DF91CF911F9184
:100BE0000F910895EF92FF920F931F93CF93DF938E
:100BF000EC017B018A01BA010E94CB052881398171
:100C000081110DC02115310519F0C9010E94191279
:100C1000198218821D821C821B821A8206C01D83C3
:100C20000C83B701C9010E948913CE01DF91CF91D6
:100C30001F910F91FF90EF900895CF93DF9300D015
:100C400000D0CDB7DEB7611571058105910579F04A
:100C50009B01AC0169833A834B835C830E94AE1095
:100C600029813A814B815C810E94DE1003C060E0E3
:100C700070E0CB010F900F900F900F90DF91CF910C
:100C80000895CF93DF93CDB7DEB72E970FB6F894C4
:100C9000DEBF0FBECDBF789484B5826084BD84B5BD
:100CA000816084BD85B5826085BD85B5816085BD67
:100CB00080916E00816080936E001092810080911F
:100CC00081008260809381008091810081608093A7
:100CD0008100809180008160809380008091B100CC
:100CE00084608093B1008091B00081608093B000F7
:100CF00080917A00846080937A0080917A0082608B
:100D000080937A0080917A00816080937A0080914C
:100D10007A00806880937A001092C10010921E03BE
:100D200010921F0310922003109221031092DC02F4
:100D30001092DD021092DE021092DF020E94030385
:100D40006B017C014B015C0128EB820E2BE0921EB3
:100D5000A11CB11C0E9403036C157D058E059F0527
:100D600028F086169706A806B906A0F78DE392E04C
:100D700090931D0380931C03E0914D02F0914E026D
:100D800082E08083E0914902F0914A021082E09172
:100D90004B02F0914C0280E1808310925502E09169
:100DA0005102F091520286E08083E0914F02F0916F
:100DB0005002808180618083E0914F02F091500267
:100DC000808188608083E0914F02F09150028081A1
:100DD00080688083E0914F02F091500280818F7D86
:100DE00080830E9403036093DC027093DD02809392
:100DF000DE029093DF0280911C0390911D03DC01C1
:100E0000ED91FC910280F381E02D41E150E061E33E
:100E100071E009950E9403036B017C014B015C01A9
:100E2000BAE08B0E911CA11CB11C0E9403036C152F
:100E30007D058E059F0528F086169706A806B9063B
:100E4000A0F781E08093F0029FE397B998B9219AC7
:100E5000229A539A2A9A239A259A229A2D988DBDDE
:100E600080E58CBDECEAF1E0CF014896E817F90780
:100E700038F4108211823396DF0111971C92F6CF5D
:100E8000FC018C53924081F780E00E94850580E24E
:100E90008093800010926F001092AB01299A2998DC
:100EA0008093800080E18093810081E090E09093C6
:100EB00089008093880082E090E090938B0080937B
:100EC0008A0080E090E2909387008093860083E21E
:100ED0008093B00088E08093B1001092B40083E06A
:100EE0008093B3008091B10081608093B1008091C4
:100EF000810081608093810080E00E9485058AEFF7
:100F00009FE0909349018093480190934D01809315
:100F10004C0190934F0180934E0190935101809327
:100F2000500110925201109257010E9471051092C7
:100F30004303109242031092410310924003109217
:100F40003F0310923E038DE991E090934503809317
:100F5000440390913403963108F057C02DEB30E0F4
:100F600030933F0320933E032BE931E0309341035C
:100F7000209340032CE231E030934303209342035B
:100F800020916800983050F031E09E3008F430E055
:100F900081E001C0880F3A95EAF701C084E0822B16
:100FA00080936800983038F09E3040F0963148F0D9
:100FB00020E030E008C02DE630E005C02BE630E050
:100FC00002C02CE630E030933C0320933B03983082
:100FD00030F481E001C0880F9A95EAF70EC0292FFE
:100FE00030E09E3018F42850310902C02E503109EB
:100FF00081E001C0880F2A95EAF780933D03809134
:101000004403909145030197F1F780914203909139
:101010004303892B21F1809146019091470133E0F0
:1010200088329307E1F0009711F00E94D30380917A
:1010300046038E7F8093460310924501109244012F
:1010400088E293E09093470180934601E0913B034F
:10105000F0913C03908180913D03892B80830E9415
:10106000DE0200915C0110915D0120915E013091E2
:101070005F01DC01CB01801B910BA20BB30B8C3AFF
:101080009D40A105B10508F4B3C60E94DE0260933D
:101090005C0170935D0180935E0190935F010E94FB
:1010A0000303009158011091590120915A01309188
:1010B0005B01DC01CB01801B910BA20BB30B8C32CB
:1010C0009140A105B10508F465C60E9471055090D4
:1010D0005701852D90E08A30910508F035C6FC0156
:1010E000EC5CFF4F0C946A11E0904A01F0904B01C8
:1010F000E114F10431F48FE791E0909302018093C1
:101100000101C701A0E4EA16F10414F08FE390E0B6
:101110005C0197FF03C0BFE0AB0EB11C04E0B594C7
:10112000A7940A95E1F760E170E00E9456113C0136
:10113000C12CD12CAC14BD04DCF1812C912C681491
:101140007904A4F00091480110914901C40166E0BE
:1011500070E00E945611962F22E04C2D682F892FA7
:101160000E941A042FEF821A920AE9CFC114D10407
:10117000D9F0812C912C452C352C009148011091EF
:10118000490122E0482D642D832D0E941A043394D6
:1011900036E03312F2CF43944312EECF8FEF881A2A
:1011A000980A8C149D043CF39FEFC91AD90AC2CF48
:1011B000A0E4EA16F10408F4CFC5C701CF97803444
:1011C000910514F08FE390E04C0197FF03C02FE0EE
:1011D000820E911C14E0959487941A95E1F760E1D2
:1011E00070E00E9456113C01C12CD12C8C149D043E
:1011F0002CF4B0E8EB16F104E0F5AEC5A12CB12C4F
:101200006A147B04A4F00091480110914901B501D2
:1012100063707727C501959587959595879521E00A
:101220004C2D0E941A043FEFA31AB30AE9CFC11450
:10123000D104D9F0A12CB12C452C352C00914801BA
:101240001091490121E04A2D642D832D0E941A043A
:10125000339484E03812F2CF43944812EECF9FEFDC
:10126000A91AB90AAC14BD043CF3AFEFCA1ADA0AE2
:10127000BDCFC7018F5791098034910514F08FE3DA
:1012800090E04C0197FF03C02FE0820E911CA4E078
:1012900095948794AA95E1F760E170E00E94561159
:1012A0003C01C12CD12C8C149D042CF4B0ECEB1619
:1012B000F104E0F551C5A12CB12C6A147B04A4F013
:1012C0000091480110914901B50163707727C5016C
:1012D000959587959595879520E04C2D0E941A0449
:1012E0003FEFA31AB30AE9CFC114D104D9F0A12C5E
:1012F000B12C452C352C009148011091490120E07A
:101300004A2D642D832D0E941A04339484E03812F0
:10131000F2CF43944812EECF9FEFA91AB90AAC144A
:10132000BD043CF3AFEFCA1ADA0ABDCFC7018F5B29
:1013300091098034910514F08FE390E04C0197FF00
:1013400003C02FE0820E911CE4E095948794EA9507
:10135000E1F760E170E00E9456113C01C12CD12CF4
:101360008C149D0434F4BFEFEB16F10409F0C0F5C2
:10137000F3C4A12CB12C6A147B0494F0B501637002
:101380007727C501959587959595879500E010E09D
:1013900022E04C2D0E941A043FEFA31AB30AEBCFB0
:1013A000C114D104C9F0A12CB12C452C352C00E07E
:1013B00010E022E04A2D642D832D0E941A043394FC
:1013C00084E03812F4CF43944812F0CF9FEFA91A6B
:1013D000B90AAC14BD044CF3AFEFCA1ADA0AC0CF95
:1013E000C7018F5F91098034910514F08FE390E07D
:1013F0004C0197FF03C02FE0820E911C54E095949E
:1014000087945A95E1F760E170E00E9456113C0123
:10141000C12CD12C8C149D0434F4B0E4EB16B1E053
:10142000FB06C0F599C4A12CB12C6A147B0494F07E
:10143000B50163707727C501959587959595879533
:1014400000E010E021E04C2D0E941A043FEFA31AA7
:10145000B30AEBCFC114D104C9F0A12CB12C452C97
:10146000352C00E010E021E04A2D642D832D0E94F0
:101470001A04339484E03812F4CF43944812F0CF26
:101480009FEFA91AB90AAC14BD044CF3AFEFCA1A06
:10149000DA0AC0CFC7018F5391408034910514F010
:1014A0008FE390E05C0197FF03C0BFE0AB0EB11C7F
:1014B00034E0B594A7943A95E1F760E170E00E94BA
:1014C00056114C01E12CF12CAE14BF040CF444C4B1
:1014D000C12CD12C8C149D0494F0B6016370772735
:1014E000C601959587959595879500E010E020E0D9
:1014F0004E2D0E941A042FEFC21AD20AEBCFE1142C
:10150000F104C9F0C12CD12C752C652C00E010E041
:1015100020E04C2D672D862D0E941A04639434E040
:101520006312F4CF73947312F0CF8FEFC81AD80AF6
:10153000CE14DF044CF39FEFE91AF90AC5CF4EE150
:1015400050E06EE170E08EE190E004C4E090500164
:10155000F0905101C0904E01D0904F01A0904C01ED
:10156000B0904D0180914A0190914B0182309105DC
:1015700009F4D4C038F4009709F431C1019709F493
:101580000EC1EAC38430910509F446C008F464C072
:10159000059709F0E1C3C501B7FC0396DC01B595D9
:1015A000A795B595A795BC83AB83C601D7FC0396D9
:1015B0009C0135952795359527953E832D83C70149
:1015C000F7FC0396DC01B595A795B595A795B88767
:1015D000AF834501B7FE03C0B7E08B0E911CA3E0BB
:1015E00095948794AA95E1F73601D7FE03C027E0CA
:1015F000620E711CF3E075946794FA95E1F7270188
:10160000F7FE03C037E0430E511CE3E055944794C6
:10161000EA95E1F7212C1AC24501B7FE03C083E029
:10162000880E911C95948794959487943601D7FEE3
:1016300003C093E0690E711C759467947594679468
:101640002701F7FE03C0A3E04A0E511C55944794AE
:1016500055944794212CF8C1C501B7FC03969C0111
:1016600035952795359527953C832B83C601D7FC67
:101670000396DC01B595A795B595A795BE83AD8377
:10168000C701F7FC03969C0135952795359527955D
:1016900038872F83C501B7FC0796DC0183E0B59539
:1016A000A7958A95E1F7BA87A987C601D7FC07965F
:1016B0009C0103E0359527950A95E1F73C872B8738
:1016C000C701F7FC0796DC0113E0B595A7951A95BD
:1016D000E1F7BE87AD871501B7FE03C0BFE02B0E53
:1016E000311CB4E035942794BA95E1F74601D7FE52
:1016F00003C02FE0820E911CA4E095948794AA95D4
:10170000E1F73701F7FE03C03FE0630E711CF4E020
:1017100075946794FA95E1F7412C62C1C501B7FC55
:101720000396DC01B595A795B595A795BC83AB83CA
:10173000C601D7FC03969C013595279535952795CD
:101740003E832D83C701F7FC0396DC01B595A79571
:10175000B595A795B887AF834501B7FE03C0B7E03D
:101760008B0E911C53E0959487945A95E1F73601BE
:10177000D7FE03C027E0620E711C43E075946794A6
:101780004A95E1F72701F7FE03C037E0430E511CED
:1017900033E0559447943A95E1F7212CBDC04501BB
:1017A000B7FE03C083E0880E911C959487949594AE
:1017B00087943601D7FE03C093E0690E711C7594BF
:1017C0006794759467942701F7FE03C0A3E04A0E5F
:1017D000511C5594479455944794212C51C0812C09
:1017E000912C850122E043E0692D882D0E941A0486
:1017F000860121E043E0692D882D0E941A048701AB
:1018000020E043E0692D882D0E941A049394B4E0EF
:101810009B12E7CF83948B12E3CF9EC2850122E017
:1018200042E0632D822D0E941A04860121E042E0ED
:10183000632D822D0E941A04870120E042E0632D6F
:10184000822D0E941A04840122E043E0632D822D40
:101850000E941A04830121E043E0632D822D0E943F
:101860001A04820120E043E0632D822D0E941A04B5
:10187000339424E03212D2CF2394221609F46CC29E
:10188000312CCCCF850122E041E0632D822D0E94D6
:101890001A04860121E041E0632D822D0E941A0482
:1018A000870120E041E0632D822D0E941A040B8104
:1018B0001C8122E042E0632D822D0E941A040D81DA
:1018C0001E8121E042E0632D822D0E941A040F81C7
:1018D000188520E042E0632D822D0E941A048401C5
:1018E00022E043E0632D822D0E941A04830121E04F
:1018F00043E0632D822D0E941A04820120E043E020
:10190000632D822D0E941A04339434E03312BACF2F
:101910002394231609F420C2312CB4CF850122E090
:1019200040E0652D842D0E941A04860121E040E0EC
:10193000652D842D0E941A04870120E040E0652D6A
:10194000842D0E941A040B811C8122E041E0652D48
:10195000842D0E941A040D811E8121E041E0652D35
:10196000842D0E941A040F81188520E041E0652D26
:10197000842D0E941A0409851A8522E042E0652D13
:10198000842D0E941A040B851C8521E042E0652D00
:10199000842D0E941A040D851E8520E042E0652DED
:1019A000842D0E941A04810122E043E0652D842DDC
:1019B0000E941A04840121E043E0652D842D0E94D9
:1019C0001A04830120E043E0652D842D0E941A044F
:1019D000539484E05812A2CF4394481609F4BCC132
:1019E000512C9CCF850122E041E0632D822D0E9485
:1019F0001A04860121E041E0632D822D0E941A0421
:101A0000870120E041E0632D822D0E941A048401A9
:101A100022E040E0632D822D0E941A04830121E020
:101A200040E0632D822D0E941A04820120E040E0F4
:101A3000632D822D0E941A04339494E03912D2CF80
:101A40002394291609F488C1312CCCCF312C85017F
:101A500022E042E0632D822D0E941A04860121E0DB
:101A600042E0632D822D0E941A04870120E042E0AB
:101A7000632D822D0E941A040B811C8122E041E01B
:101A8000632D822D0E941A040D811E8121E041E008
:101A9000632D822D0E941A040F81188520E041E0F9
:101AA000632D822D0E941A04840122E040E0632D00
:101AB000822D0E941A04830121E040E0632D822DD3
:101AC0000E941A04820120E040E0632D822D0E94D2
:101AD0001A043394A4E03A12BACF23942A12B6CF50
:101AE00010924B0110924A0137C180914A019091A6
:101AF0004B01009799F42FE130E0309302012093DD
:101B0000010110924D0110924C0110924F01109260
:101B10004E01809148019091490117C08B30910589
:101B2000C8F480914C0190914D0180579E4F909345
:101B30004D0180934C018091500190915101803969
:101B400031E09307ACF1805991409093510180931B
:101B500050012EC085319105A8F480914E019091DD
:101B60004F0180579E4F90934F0180934E0180917B
:101B70004C0190914D018059914090934D0180937B
:101B80004C0116C04F97A0F48091500190915101E3
:101B900080579E4F909351018093500180914E0148
:101BA00090914F018059914090934F0180934E0145
:101BB0000E9424050E9402050E94E004CDC0E0912D
:101BC0004A01F0914B01EC31F10590F5E25CFF4FD9
:101BD0000C946A1181E0809355018093540182E056
:101BE00003C08091530181508093530121C08091A3
:101BF00053018F5FF9CF80915401815007C08091CC
:101C00005501815009C0809154018F5F8093540128
:101C10000FC0809155018F5F8093550109C080915D
:101C2000540181508093540110924B0110924A014B
:101C300060905501712C80905401912CE0905301DB
:101C4000F12CC70101979C838B8314019FEF291A04
:101C5000390A2301AFEF4A1A5A0A8B819C81E81690
:101C6000F9060CF479C064012C143D0454F15301BD
:101C70004A145B0414F100914C0110914D0122E0D3
:101C80004E2D6A2D8C2D0E941A0400914E01109148
:101C90004F0121E04E2D6A2D8C2D0E941A040091D7
:101CA00050011091510120E04E2D6A2D8C2D0E9483
:101CB0001A04BFEFAB1ABB0ADBCF2FEFC21AD20A4E
:101CC000D3CF31E0E31AF108C8CFE12CF12CD12CAD
:101CD00063E070E080E090E00E941D0661157105F0
:101CE00031F4009148011091490122E011C06130A6
:101CF000710531F4009148011091490121E008C0BB
:101D00006230710551F4009148011091490120E0C1
:101D10004E2D6F2D8D2D0E941A04D39494E0D9126C
:101D2000D7CFF394F912D3CF10924B0110924A01FE
:101D3000E394A4E0EA12CACF0FC00E9402050E94F9
:101D4000E0040E94240508C040E050E060E070E03C
:101D500081E090E00E944C040E94030360935801CC
:101D60007093590180935A0190935B0180914A01CD
:101D700090914B01019690934B0180934A012091E1
:101D80000101309102018217930720F010924B015C
:101D900010924A01F09056018FE388B98F2D0E946E
:101DA00085050E94DE024B015C010E94DE02DC011F
:101DB000CB0188199909AA09BB09883E9340A1055E
:101DC000B10598F388B1282F2F7381E090E001C00E
:101DD000880FFA94EAF78095822388B9809156019A
:101DE00090E0019666E070E00E94561180935601E3
:101DF00088E293E00E94FB01892BD1F140E050E0A2
:101E000062E471E082E293E00E94F20588E293E0EE
:101E10000E94FB01892B61F188E293E00E9413028A
:101E2000809300018A3321F189831A82E09026038E
:101E3000F09027033FEFE31AF30AB70182E293E041
:101E40000E94CB05882311F32091220330912303B4
:101E50008091260390912703BE016F5F7F4F820F11
:101E6000931F0E948913F0922703E0922603CECF9E
:101E70000E948401F4C880912203909123030E9460
:101E8000191283E291E0909329038093280388E25A
:101E900093E00C94D303CF93DF93109240021092FF
:101EA0003F0288EE93E0A0E0B0E08093410290937F
:101EB0004202A0934302B093440221E131E0309307
:101EC0003E0220933D0225EC30E030934A022093FD
:101ED000490224EC30E030934C0220934B0220EC7A
:101EE00030E030934E0220934D0221EC30E03093ED
:101EF000500220934F0222EC30E0309352022093A4
:101F0000510226EC30E03093540220935302109299
:101F100056021092570210925802109259021092D3
:101F2000E0021092E1021092E2021092E30210929B
:101F3000E4021092E5021092E6021092E70210927B
:101F4000E8021092E9021092EA021092EB0210925B
:101F5000EC021092ED021092EE021092EF0210923B
:101F60002B0310922A0380932C0390932D03A093AC
:101F70002E03B0932F0383E291E090932903809383
:101F8000280310923F0310923E03109241031092D7
:101F900040031092430310924203109245031092A3
:101FA0004403609146036E7F6D7F609346036695A0
:101FB000617081E068278CE00E949202E6E0F1E027
:101FC0002491E2EFF0E08491882399F090E0880F6B
:101FD000991FFC01EE52FF4FA591B491FC01E8530B
:101FE000FF4F859194918FB7F894EC91E22BEC938D
:101FF0008FBFE6E0F1E0E491E0933803E2EFF0E038
:10200000E491F0E0EE0FFF1FE853FF4F85919491AC
:1020100090933A0380933903E2E0F1E02491EEEEED
:10202000F0E084918823C1F090E0880F991FFC01B3
:10203000EE52FF4FC591D491FC01E853FF4FA5919B
:10204000B4919FB7F8948881E22FE0958E2388831E
:102050008C91E823EC939FBF8091460381FD04C0DF
:1020600061E088E00E94920288E080933403E2E01D
:10207000F1E0E491E0933503EEEEF0E0E491F0E07E
:10208000EE0FFF1FE452FF4F859194919093370319
:10209000809336031092230310922203109225039B
:1020A00010922403109227031092260340E050E080
:1020B00062E471E082E293E0DF91CF910C94F2054B
:1020C0008F929F92AF92BF92CF92DF92EF92FF9248
:1020D000CF93DF93EC01688179818A819B816115BF
:1020E00071058105910521F464E279ED8BE597E0B6
:1020F0002DE133EF41E050E00E94DE1049015A012A
:102100009B01AC01A7EAB1E40E94FD106B017C01C8
:10211000ACEEB4EFA50194010E940B11DC01CB01E0
:102120008C0D9D1DAE1DBF1DB7FF03C00197A109FA
:10213000B04888839983AA83BB83BC01CD019F7774
:10214000DF91CF91FF90EF90DF90CF90BF90AF9055
:102150009F908F9008950E946010089583E091E011
:102160000E946010089560930301709304018093AE
:102170000501909306010895A1E21A2EAA1BBB1B2C
:10218000FD010DC0AA1FBB1FEE1FFF1FA217B30743
:10219000E407F50720F0A21BB30BE40BF50B661F59
:1021A000771F881F991F1A9469F76095709580951D
:1021B00090959B01AC01BD01CF010895052E97FBC1
:1021C0001EF400940E94F51057FD07D00E94BC1029
:1021D00007FC03D04EF40C94F510509540953095C3
:1021E00021953F4F4F4F5F4F089590958095709583
:1021F00061957F4F8F4F9F4F08950E944711A59F74
:10220000900DB49F900DA49F800D911D11240895F1
:10221000B7FF0C94FD100E94FD10821B930B0895D4
:102220002F923F924F925F926F927F928F929F92E6
:10223000AF92BF92CF92DF92EF92FF920F931F93D4
:10224000CF93DF93CDB7DEB7CA1BDB0B0FB6F89485
:10225000DEBF0FBECDBF09942A88398848885F84C5
:102260006E847D848C849B84AA84B984C884DF8036
:10227000EE80FD800C811B81AA81B981CE0FD11D1A
:102280000FB6F894DEBF0FBECDBFED010895A29F3B
:10229000B001B39FC001A39F700D811D1124911D3A
:1022A000B29F700D811D1124911D089597FB072E7B
:1022B00016F4009407D077FD09D00E94701107FC36
:1022C00005D03EF4909581959F4F08957095619546
:1022D0007F4F0895EE0FFF1F0590F491E02D0994B4
:1022E000AA1BBB1B51E107C0AA1FBB1FA617B7073C
:1022F00010F0A61BB70B881F991F5A95A9F7809558
:102300009095BC01CD010895CF93DF938230910564
:1023100010F482E090E0E0914A03F0914B0320E05A
:1023200030E0C0E0D0E0309711F140815181481792
:102330005907C0F04817590761F4828193812097AB
:1023400019F09B838A832BC090934B0380934A039D
:1023500026C02115310519F04217530718F49A01C8
:10236000BE01DF01EF010280F381E02DDCCF2115FA
:10237000310509F1281B390B2430310590F41296F0
:102380008D919C9113976115710521F0FB01938349
:10239000828304C090934B0380934A03FD013296DD
:1023A00044C0FD01E20FF31F819391932250310944
:1023B0002D933C933AC02091480330914903232B3D
:1023C00041F42091090130910A013093490320938F
:1023D000480320910701309108012115310541F48E
:1023E0002DB73EB740910B0150910C01241B350BCA
:1023F000E0914803F0914903E217F307A0F42E1B84
:102400003F0B2817390778F0AC014E5F5F4F241758
:10241000350748F04E0F5F1F509349034093480320
:102420008193919302C0E0E0F0E0CF01DF91CF9182
:1024300008950F931F93CF93DF93009709F48CC0F7
:10244000FC0132971382128200914A0310914B03D0
:102450000115110581F420813181820F931F209194
:102460004803309149032817390779F5F093490358
:10247000E093480371C0D80140E050E0AE17BF07B9
:1024800050F412962D913C911397AD012115310511
:1024900009F1D901F3CF9D01DA01338322836081F1
:1024A0007181860F971F8217930769F4EC012881C9
:1024B0003981260F371F2E5F3F4F318320838A815A
:1024C0009B8193838283452B29F4F0934B03E09304
:1024D0004A0342C01396FC93EE931297ED01499183
:1024E00059919E01240F351FE217F30771F4808183
:1024F0009181840F951F029611969C938E938281F1
:10250000938113969C938E931297E0E0F0E0D801AC
:1025100012968D919C911397009719F0F8018C01F8
:10252000F6CF8D919C9198012E5F3F4F820F931FA4
:1025300020914803309149032817390769F43097EF
:1025400029F410924B0310924A0302C013821282A4
:102550001093490300934803DF91CF911F910F918E
:102560000895A0E0B0E0E7EBF2E10C941411EC0167
:10257000009721F4CB010E948411B8C0FC01E60F42
:10258000F71F9C0122503109E217F30708F4ACC091
:10259000D9010D911C91119706171707B0F005305E
:1025A000110508F49FC0C80104978617970708F41F
:1025B00099C002501109061B170B019311936D93DB
:1025C0007C93CF010E9419128DC05B01A01AB10A41
:1025D0004C01800E911EA0914A03B0914B0340E044
:1025E00050E0E12CF12C109709F44AC0A815B90568
:1025F000D1F56D907C901197630182E0C80ED11CDB
:10260000CA14DB0480F1A3014A195B096A0182E064
:10261000C80ED11C1296BC9012971396AC91B5E0DF
:10262000CB16D10440F0B282A38351834083D901F9
:102630006D937C930AC00E5F1F4FC301800F911FE3
:10264000F90191838083EB2DFA2FE114F10431F02D
:10265000D7011396FC93EE93129744C0F0934B036B
:10266000E0934A033FC08D919C91119748175907F9
:1026700008F4AC017D0112960D90BC91A02DB3CF52
:10268000809148039091490388159905E1F4461714
:102690005707C8F48091070190910801009741F411
:1026A0008DB79EB740910B0150910C01841B950B87
:1026B000E817F907C8F4F0934903E0934803F901D8
:1026C000718360830FC0CB010E9484117C0100974D
:1026D00059F0A801BE010E948013CE010E94191278
:1026E000C70104C0CE0102C080E090E0CDB7DEB7E4
:1026F000EEE00C94301181E090E0F8940C9490138B
:10270000FB01DC0102C001900D9241505040D8F70E
:102710000895FB01DC0101900D920020E1F708957E
:1027200010E0C8E8D0E004C0FE010E946A112196C2
:0A273000C938D107C9F7F894FFCFAC
:10273A002090010100000000004C0380000000000E
:10274A00001B014605B3006201E400C200D6000086
:10275A00000000A70146053502A601FB0113028EFF
:10276A0001564D4450565F317C315F564D445056A8
:04277A000D0A000044
:107E0000112484B714BE81FFF0D085E080938100F7
:107E100082E08093C00088E18093C10086E0809377
:107E2000C20080E18093C4008EE0C9D0259A86E02C
:107E300020E33CEF91E0309385002093840096BBD3
:107E4000B09BFECF1D9AA8958150A9F7CC24DD24C4
:107E500088248394B5E0AB2EA1E19A2EF3E0BF2EE7
:107E6000A2D0813461F49FD0082FAFD0023811F036
:107E7000013811F484E001C083E08DD089C08234E0
:107E800011F484E103C0853419F485E0A6D080C0E4
:107E9000853579F488D0E82EFF2485D0082F10E0AE
:107EA000102F00270E291F29000F111F8ED06801E7
:107EB0006FC0863521F484E090D080E0DECF843638
:107EC00009F040C070D06FD0082F6DD080E0C81688
:107ED00080E7D80618F4F601B7BEE895C0E0D1E017
:107EE00062D089930C17E1F7F0E0CF16F0E7DF06D8
:107EF00018F0F601B7BEE89568D007B600FCFDCFD4
:107F0000A601A0E0B1E02C9130E011968C91119780
:107F100090E0982F8827822B932B1296FA010C0160
:107F200087BEE89511244E5F5F4FF1E0A038BF0790
:107F300051F7F601A7BEE89507B600FCFDCF97BE46
:107F4000E89526C08437B1F42ED02DD0F82E2BD052
:107F50003CD0F601EF2C8F010F5F1F4F84911BD097
:107F6000EA94F801C1F70894C11CD11CFA94CF0C13
:107F7000D11C0EC0853739F428D08EE10CD085E9AC
:107F80000AD08FE07ACF813511F488E018D01DD067
:107F900080E101D065CF982F8091C00085FFFCCF94
:107FA0009093C60008958091C00087FFFCCF809118
:107FB000C00084FD01C0A8958091C6000895E0E648
:107FC000F0E098E1908380830895EDDF803219F02E
:107FD00088E0F5DFFFCF84E1DECF1F93182FE3DFCA
:107FE0001150E9F7F2DF1F91089580E0E8DFEE27F6
:047FF000FF270994CA
:027FFE00040479
:0400000300007E007B
:00000001FF