:100000000C9409230C9431230C9431230C949A24DE
:100010000C949A240C949A240C9431230C9431233C
:100020000C9431230C9431230C9431230C94312300
:100030000C9431230C942A250C9431230C943123F5
:100040000C9450240C9431230C9431230C943123C0
:100050000C9431230C9431230C9431230C943123D0
:100060000C9431230C9431234F2A0F2E162E7F31FE
:10007000E9318B32DD32DD32E032E432F431FB3112
:1000800013320532093209320D320D321332133276
:10009000013205320532093209320D320D32133286
:1000A0001332013205320532093209320D320D3276
:1000B0001332193200000000250028002B00040430
:1000C0000404040404040202020202020303030300
:1000D00003030102040810204080010204081020DC
:1000E00001020408102000000008000201000003C3
:1000F00004070000000000000000000000000000F5
:1001000000000000000000000000000000000000EF
:1001100000000000000000000000000000000000DF
:1001200000000000000000000000000000000000CF
:1001300000000000000000000000000000000000BF
:10014000000000000000FF0F0000000000000000A1
:100150000000000000000000FF0F00000000000091
:10016000000000000000000000000000000000008F
:10017000000000000000000000000000000000007F
:10018000000000000000000000000000000000006F
:10019000000000000000000000000000000000005F
:1001A000000000000000FF0F00000000FF0F000033
:1001B0000000FF0F00000000FF0F00000000000023
:1001C000000000000000000000000000000000002F
:1001D000000000000000000000000000000000001F
:1001E000000000000000000000000000000000000F
:1001F00000000000000000000000000000000000FF
:10020000000000000000FF0F0000000000000000E0
:100210000000000000000000FF0F000000000000D0
:1002200000000000000000000000000000000000CE
:1002300000000000000000000000000000000000BE
:1002400000000000000000000000000000000000AE
:10025000000000000000000000000000000000009E
:10026000000000000000FF0F00000000FF0F000072
:100270000000FF0F00000000FF0F00000000000062
:10028000000000000000000000000000000000006E
:10029000000000000000000000000000000000005E
:1002A000000000000000000000000000000000004E
:1002B000000000000000000000000000000000003E
:1002C000000000000000FF0F00000000FF0F000012
:1002D0000000FF0F00000000000000000000000010
:1002E000000000000000000000000000000000000E
:1002F00000000000000000000000000000000000FE
:1003000000000000000000000000000000000000ED
:1003100000000000000000000000000000000000DD
:10032000000000000000FF0F00000000FF0F0000B1
:100330000000FF0F00000000FF0F000000000000A1
:1003400000000000000000000000000000000000AD
:10035000000000000000000000000000000000009D
:10036000000000000000000000000000000000008D
:10037000000000000000000000000000000000007D
:10038000000000000000FF0F00000000FF0F000051
:100390000000FF0F00000000FF0F00000000000041
:1003A000000000000000000000000000000000004D
:1003B000000000000000000000000000000000003D
:1003C000000000000000000000000000000000002D
:1003D000000000000000000000000000000000001D
:1003E000000000000000FF0F00000000FF0F0000F1
:1003F0000000FF0F000000000000000000000000EF
:1004000000000000000000000000000000000000EC
:1004100000000000000000000000000000000000DC
:1004200000000000000000000000000000000000CC
:1004300000000000000000000000000000000000BC
:10044000000000000000FF0F00000000FF0F000090
:100450000000FF0F00000000FF0F00000000000080
:10046000000000000000000000000000000000008C
:10047000000000000000000000000000000000007C
:10048000000000000000000000000000000000006C
:10049000000000000000000000000000000000005C
:1004A000000000000000FF0F00000000000000003E
:1004B000000000000000000000000000000000003C
:1004C000000000000000000000000000000000002C
:1004D000000000000000000000000000000000001C
:1004E000000000000000000000000000000000000C
:1004F00000000000000000000000000000000000FC
:10050000000000000000FF0F0000000000000000DD
:1005100000000000000000000000000000000000DB
:1005200000000000000000000000000000000000CB
:1005300000000000000000000000000000000000BB
:1005400000000000000000000000000000000000AB
:10055000000000000000000000000000000000009B
:10056000000000000000FF0F00000000FF0F00006F
:100570000000FF0F00000000FF0F0000000000005F
:10058000000000000000000000000000000000006B
:10059000000000000000000000000000000000005B
:1005A000000000000000000000000000000000004B
:1005B000000000000000000000000000000000003B
:1005C000000000000000FF0F00000000FF0F00000F
:1005D0000000FF0F0000000000000000000000000D
:1005E000000000000000000000000000000000000B
:1005F00000000000000000000000000000000000FB
:1006000000000000000000000000000000000000EA
:1006100000000000000000000000000000000000DA
:10062000000000000000FF0F0000000000000000BC
:100630000000000000000000FF0F000000000000AC
:1006400000000000000000000000000000000000AA
:10065000000000000000000000000000000000009A
:10066000000000000000000000000000000000008A
:10067000000000000000000000000000000000007A
:10068000000000000000FF0F00000000000000005C
:100690000000000000000000FF0F0000000000004C
:1006A000000000000000000000000000000000004A
:1006B000000000000000000000000000000000003A
:1006C000000000000000000000000000000000002A
:1006D000000000000000000000000000000000001A
:1006E000000000000000FF0F00000000FF0F0000EE
:1006F0000000FF0F000000000000000000000000EC
:1007000000000000000000000000000000000000E9
:1007100000000000000000000000000000000000D9
:1007200000000000000000000000000000000000C9
:1007300000000000000000000000000000000000B9
:10074000000000000000FF0F00000000FF0F00008D
:100750000000FF0F00000000FF0F0000000000007D
:100760000000000000000000000000000000000089
:100770000000000000000000000000000000000079
:100780000000000000000000000000000000000069
:100790000000000000000000000000000000000059
:1007A000000000000000FF0F00000000000000003B
:1007B0000000000000000000000000000000000039
:1007C0000000000000000000000000000000000029
:1007D0000000000000000000000000000000000019
:1007E0000000000000000000000000000000000009
:1007F00000000000000000000000000000000000F9
:10080000000000000000FF0F00000000FF0F0000CC
:100810000000FF0F000000000000000000000000CA
:1008200000000000000000000000000000000000C8
:1008300000000000000000000000000000000000B8
:1008400000000000000000000000000000000000A8
:100850000000000000000000000000000000000098
:10086000000000000000FF0F00000000FF0F00006C
:100870000000FF0F00000000FF0F0000000000005C
:100880000000000000000000000000000000000068
:100890000000000000000000000000000000000058
:1008A0000000000000000000000000000000000048
:1008B0000000000000000000000000000000000038
:1008C000000000000000FF0F00000000000000001A
:1008D0000000000000000000000000000000000018
:1008E0000000000000000000000000000000000008
:1008F00000000000000000000000000000000000F8
:1009000000000000000000000000000000000000E7
:1009100000000000000000000000000000000000D7
:10092000000000000000FF0F00000000FF0F0000AB
:100930000000FF0F000000000000000000000000A9
:1009400000000000000000000000000000000000A7
:100950000000000000000000000000000000000097
:100960000000000000000000000000000000000087
:100970000000000000000000000000000000000077
:10098000000000000000FF0F000000000000000059
:100990000000000000000000000000000000000057
:1009A0000000000000000000000000000000000047
:1009B0000000000000000000000000000000000037
:1009C0000000000000000000000000000000000027
:1009D0000000000000000000000000000000000017
:1009E000000000000000FF0F00000000FF0F0000EB
:1009F0000000FF0F00000000FF0F000000000000DB
:100A000000000000000000000000000000000000E6
:100A100000000000000000000000000000000000D6
:100A200000000000000000000000000000000000C6
:100A300000000000000000000000000000000000B6
:100A4000000000000000FF0F00000000FF0F00008A
:100A50000000FF0F00000000FF0F0000000000007A
:100A60000000000000000000000000000000000086
:100A70000000000000000000000000000000000076
:100A80000000000000000000000000000000000066
:100A90000000000000000000000000000000000056
:100AA000000000000000FF0F000000000000000038
:100AB0000000000000000000FF0F00000000000028
:100AC0000000000000000000000000000000000026
:100AD0000000000000000000000000000000000016
:100AE0000000000000000000000000000000000006
:100AF00000000000000000000000000000000000F6
:100B0000000000000000FF0F0000000000000000D7
:100B100000000000000000000000000000000000D5
:100B200000000000000000000000000000000000C5
:100B300000000000000000000000000000000000B5
:100B400000000000000000000000000000000000A5
:100B50000000000000000000000000000000000095
:100B6000000000000000000000000000FF0F000077
:100B70000000FF0F00000000FF0F00000000000059
:100B80000000000000000000000000000000000065
:100B90000000000000000000000000000000000055
:100BA0000000000000000000000000000000000045
:100BB0000000000000000000000000000000000035
:100BC000000000000000FF0F000000000000000017
:100BD0000000000000000000FF0F00000000000007
:100BE0000000000000000000000000000000000005
:100BF00000000000000000000000000000000000F5
:100C000000000000000000000000000000000000E4
:100C100000000000000000000000000000000000D4
:100C2000000000000000FF0F0000000000000000B6
:100C30000000000000000000FF0F000000000000A6
:100C400000000000000000000000000000000000A4
:100C50000000000000000000000000000000000094
:100C60000000000000000000000000000000000084
:100C70000000000000000000000000000000000074
:100C8000000000000000FF0F00000000FF0F000048
:100C90000000FF0F00000000FF0F00000000000038
:100CA0000000000000000000000000000000000044
:100CB0000000000000000000000000000000000034
:100CC0000000000000000000000000000000000024
:100CD0000000000000000000000000000000000014
:100CE000000000000000FF0F0000000000000000F6
:100CF0000000000000000000FF0F000000000000E6
:100D000000000000000000000000000000000000E3
:100D100000000000000000000000000000000000D3
:100D200000000000000000000000000000000000C3
:100D300000000000000000000000000000000000B3
:100D4000000000000000FF0F00000000FF0F000087
:100D50000000FF0F00000000FF0F00000000000077
:100D60000000000000000000000000000000000083
:100D70000000000000000000000000000000000073
:100D80000000000000000000000000000000000063
:100D90000000000000000000000000000000000053
:100DA000000000000000000000000000FF0F000035
:100DB0000000FF0F00000000000000000000000025
:100DC0000000000000000000000000000000000023
:100DD0000000000000000000000000000000000013
:100DE0000000000000000000000000000000000003
:100DF00000000000000000000000000000000000F3
:100E0000000000000000000000000000FF0F0000D4
:100E10000000FF0F000000000000000000000000C4
:100E200000000000000000000000000000000000C2
:100E300000000000000000000000000000000000B2
:100E400000000000000000000000000000000000A2
:100E50000000000000000000000000000000000092
:100E6000000000000000FF0F00000000FF0F000066
:100E70000000FF0F00000000FF0F00000000000056
:100E80000000000000000000000000000000000062
:100E90000000000000000000000000000000000052
:100EA0000000000000000000000000000000000042
:100EB0000000000000000000000000000000000032
:100EC000000000000000000000000000FF0F000014
:100ED0000000FF0F00000000000000000000000004
:100EE0000000000000000000000000000000000002
:100EF00000000000000000000000000000000000F2
:100F000000000000000000000000000000000000E1
:100F100000000000000000000000000000000000D1
:100F2000000000000000FF0F0000000000000000B3
:100F30000000000000000000FF0F000000000000A3
:100F400000000000000000000000000000000000A1
:100F50000000000000000000000000000000000091
:100F60000000000000000000000000000000000081
:100F70000000000000000000000000000000000071
:100F80000000000000000000000000000000000061
:100F90000000000000000000FF0F00000000000043
:100FA0000000000000000000000000000000000041
:100FB0000000000000000000000000000000000031
:100FC0000000000000000000000000000000000021
:100FD0000000000000000000000000000000000011
:100FE000000000000000FF0F00000000FF0F0000E5
:100FF0000000FF0F00000000FF0F000000000000D5
:1010000000000000000000000000000000000000E0
:1010100000000000000000000000000000000000D0
:1010200000000000000000000000000000000000C0
:1010300000000000000000000000000000000000B0
:10104000000000000000FF0F000000000000000092
:101050000000000000000000FF0F00000000000082
:101060000000000000000000000000000000000080
:101070000000000000000000000000000000000070
:101080000000000000000000000000000000000060
:101090000000000000000000000000000000000050
:1010A000000000000000FF0F00000000FF0F000024
:1010B0000000FF0F00000000000000000000000022
:1010C0000000000000000000000000000000000020
:1010D0000000000000000000000000000000000010
:1010E0000000000000000000000000000000000000
:1010F00000000000000000000000000000000000F0
:10110000000000000000FF0F0000000000000000D1
:101110000000FF0F000000000000000000000000C1
:1011200000000000000000000000000000000000BF
:1011300000000000000000000000000000000000AF
:10114000000000000000000000000000000000009F
:10115000000000000000000000000000000000008F
:10116000000000000000FF0F000000000000000071
:101170000000000000000000FF0F00000000000061
:10118000000000000000000000000000000000005F
:10119000000000000000000000000000000000004F
:1011A000000000000000000000000000000000003F
:1011B000000000000000000000000000000000002F
:1011C000000000000000FF0F00000000FF0F000003
:1011D0000000FF0F00000000FF0F000000000000F3
:1011E00000000000000000000000000000000000FF
:1011F00000000000000000000000000000000000EF
:1012000000000000000000000000000000000000DE
:1012100000000000000000000000000000000000CE
:10122000000000000000FF0F0000000000000000B0
:1012300000000000000000000000000000000000AE
:10124000000000000000000000000000000000009E
:10125000000000000000000000000000000000008E
:10126000000000000000000000000000000000007E
:10127000000000000000000000000000000000006E
:10128000000000000000FF0F000000000000000050
:10129000000000000000000000000000000000004E
:1012A000000000000000000000000000000000003E
:1012B000000000000000000000000000000000002E
:1012C000000000000000000000000000000000001E
:1012D000000000000000000000000000000000000E
:1012E000000000000000FF0F0000000000000000F0
:1012F00000000000000000000000000000000000EE
:1013000000000000000000000000000000000000DD
:1013100000000000000000000000000000000000CD
:1013200000000000000000000000000000000000BD
:1013300000000000000000000000000000000000AD
:10134000000000000000FF0F00000000000000008F
:101350000000000000000000FF0F0000000000007F
:10136000000000000000000000000000000000007D
:10137000000000000000000000000000000000006D
:10138000000000000000000000000000000000005D
:10139000000000000000000000000000000000004D
:1013A000000000000000FF0F00000000000000002F
:1013B0000000000000000000FF0F0000000000001F
:1013C000000000000000000000000000000000001D
:1013D000000000000000000000000000000000000D
:1013E00000000000000000000000000000000000FD
:1013F00000000000000000000000000000000000ED
:10140000000000000000FF0F0000000000000000CE
:101410000000FF0F00000000FF0F000000000000B0
:1014200000000000000000000000000000000000BC
:1014300000000000000000000000000000000000AC
:10144000000000000000000000000000000000009C
:10145000000000000000000000000000000000008C
:10146000000000000000FF0F00000000FF0F000060
:101470000000FF0F00000000FF0F00000000000050
:10148000000000000000000000000000000000005C
:10149000000000000000000000000000000000004C
:1014A000000000000000000000000000000000003C
:1014B000000000000000000000000000000000002C
:1014C000000000000000FF0F00000000000000000E
:1014D0000000000000000000FF0F000000000000FE
:1014E00000000000000000000000000000000000FC
:1014F00000000000000000000000000000000000EC
:1015000000000000000000000000000000000000DB
:1015100000000000000000000000000000000000CB
:10152000000000000000FF0F0000000000000000AD
:101530000000000000000000FF0F0000000000009D
:10154000000000000000000000000000000000009B
:10155000000000000000000000000000000000008B
:10156000000000000000000000000000000000007B
:10157000000000000000000000000000000000006B
:10158000000000000000FF0F00000000000000004D
:101590000000FF0F00000000FF0F0000000000002F
:1015A000000000000000000000000000000000003B
:1015B000000000000000000000000000000000002B
:1015C000000000000000000000000000000000001B
:1015D000000000000000000000000000000000000B
:1015E000000000000000FF0F00000000FF0F0000DF
:1015F0000000000000000000FF0F000000000000DD
:1016000000000000000000000000000000000000DA
:1016100000000000000000000000000000000000CA
:1016200000000000000000000000000000000000BA
:1016300000000000000000000000000000000000AA
:10164000000000000000FF0F00000000FF0F00007E
:101650000000FF0F00000000FF0F0000000000006E
:10166000000000000000000000000000000000007A
:10167000000000000000000000000000000000006A
:10168000000000000000000000000000000000005A
:10169000000000000000000000000000000000004A
:1016A000000000000000FF0F00000000000000002C
:1016B0000000000000000000FF0F0000000000001C
:1016C000000000000000000000000000000000001A
:1016D000000000000000000000000000000000000A
:1016E00000000000000000000000000000000000FA
:1016F00000000000000000000000000000000000EA
:10170000000000000000FF0F0000000000000000CB
:101710000000000000000000FF0F000000000000BB
:1017200000000000000000000000000000000000B9
:1017300000000000000000000000000000000000A9
:101740000000000000000000000000000000000099
:101750000000000000000000000000000000000089
:10176000000000000000FF0F00000000FF0F00005D
:101770000000FF0F00000000FF0F0000000000004D
:101780000000000000000000000000000000000059
:101790000000000000000000000000000000000049
:1017A0000000000000000000000000000000000039
:1017B0000000000000000000000000000000000029
:1017C000000000000000FF0F00000000000000000B
:1017D0000000000000000000000000000000000009
:1017E00000000000000000000000000000000000F9
:1017F00000000000000000000000000000000000E9
:1018000000000000000000000000000000000000D8
:1018100000000000000000000000000000000000C8
:10182000000000000000FF0F00000000FF0F00009C
:101830000000FF0F00000000FF0F0000000000008C
:101840000000000000000000000000000000000098
:101850000000000000000000000000000000000088
:101860000000000000000000000000000000000078
:101870000000000000000000000000000000000068
:10188000000000000000FF0F00000000000000004A
:101890000000000000000000FF0F0000000000003A
:1018A0000000000000000000000000000000000038
:1018B0000000000000000000000000000000000028
:1018C0000000000000000000000000000000000018
:1018D0000000000000000000000000000000000008
:1018E000000000000000FF0F00000000FF0F0000DC
:1018F0000000FF0F00000000FF0F000000000000CC
:1019000000000000000000000000000000000000D7
:1019100000000000000000000000000000000000C7
:1019200000000000000000000000000000000000B7
:1019300000000000000000000000000000000000A7
:10194000000000000000FF0F00000000FF0F00007B
:101950000000FF0F00000000FF0F0000000000006B
:101960000000000000000000000000000000000077
:101970000000000000000000000000000000000067
:101980000000000000000000000000000000000057
:101990000000000000000000000000000000000047
:1019A000000000000000FF0F000000000000000029
:1019B0000000FF0F00000000FF0F0000000000000B
:1019C0000000000000000000000000000000000017
:1019D0000000000000000000000000000000000007
:1019E00000000000000000000000000000000000F7
:1019F00000000000000000000000000000000000E7
:101A0000000000000000FF0F0000000000000000C8
:101A10000000000000000000FF0F000000000000B8
:101A200000000000000000000000000000000000B6
:101A300000000000000000000000000000000000A6
:101A40000000000000000000000000000000000096
:101A50000000000000000000000000000000000086
:101A6000000000000000FF0F00000000FF0F00005A
:101A70000000FF0F00000000FF0F0000000000004A
:101A80000000000000000000000000000000000056
:101A90000000000000000000000000000000000046
:101AA0000000000000000000000000000000000036
:101AB0000000000000000000000000000000000026
:101AC000000000000000FF0F000000000000000008
:101AD0000000FF0F000000000000000000000000F8
:101AE00000000000000000000000000000000000F6
:101AF00000000000000000000000000000000000E6
:101B000000000000000000000000000000000000D5
:101B100000000000000000000000000000000000C5
:101B2000000000000000FF0F00000000FF0F000099
:101B30000000FF0F00000000FF0F00000000000089
:101B40000000000000000000000000000000000095
:101B50000000000000000000000000000000000085
:101B60000000000000000000000000000000000075
:101B70000000000000000000000000000000000065
:101B8000000000000000FF0F000000000000000047
:101B90000000000000000000FF0F00000000000037
:101BA0000000000000000000000000000000000035
:101BB0000000000000000000000000000000000025
:101BC0000000000000000000000000000000000015
:101BD0000000000000000000000000000000000005
:101BE000000000000000FF0F00000000FF0F0000D9
:101BF0000000FF0F00000000FF0F000000000000C9
:101C000000000000000000000000000000000000D4
:101C100000000000000000000000000000000000C4
:101C200000000000000000000000000000000000B4
:101C300000000000000000000000000000000000A4
:101C4000000000000000FF0F00000000FF0F000078
:101C50000000FF0F00000000FF0F00000000000068
:101C60000000000000000000000000000000000074
:101C70000000000000000000000000000000000064
:101C80000000000000000000000000000000000054
:101C90000000000000000000000000000000000044
:101CA000000000000000FF0F00000000FF0F000018
:101CB0000000FF0F00000000FF0F00000000000008
:101CC0000000000000000000000000000000000014
:101CD0000000000000000000000000000000000004
:101CE00000000000000000000000000000000000F4
:101CF00000000000000000000000000000000000E4
:101D0000000000000000FF0F0000000000000000C5
:101D100000000000000000000000000000000000C3
:101D200000000000000000000000000000000000B3
:101D300000000000000000000000000000000000A3
:101D40000000000000000000000000000000000093
:101D50000000000000000000000000000000000083
:101D6000000000000000FF0F00000000FF0F000057
:101D70000000FF0F00000000FF0F00000000000047
:101D80000000000000000000000000000000000053
:101D90000000000000000000000000000000000043
:101DA0000000000000000000000000000000000033
:101DB0000000000000000000000000000000000023
:101DC000000000000000000000000000FF0F000005
:101DD0000000000000000000000000000000000003
:101DE00000000000000000000000000000000000F3
:101DF00000000000000000000000000000000000E3
:101E000000000000000000000000000000000000D2
:101E100000000000000000000000000000000000C2
:101E2000000000000000000000000000FF0F0000A4
:101E300000000000000000000000000000000000A2
:101E40000000000000000000000000000000000092
:101E50000000000000000000000000000000000082
:101E60000000000000000000000000000000000072
:101E70000000000000000000000000000000000062
:101E8000000000000000000000000000FF0F000044
:101E90000000000000000000000000000000000042
:101EA0000000000000000000000000000000000032
:101EB0000000000000000000000000000000000022
:101EC0000000000000000000000000000000000012
:101ED0000000000000000000000000000000000002
:101EE000000000000000FF0F00000000FF0F0000D6
:101EF0000000FF0F00000000FF0F000000000000C6
:101F000000000000000000000000000000000000D1
:101F100000000000000000000000000000000000C1
:101F200000000000000000000000000000000000B1
:101F300000000000000000000000000000000000A1
:101F4000000000000000FF0F00000000FF0F000075
:101F50000000FF0F00000000FF0F00000000000065
:101F60000000000000000000000000000000000071
:101F70000000000000000000000000000000000061
:101F80000000000000000000000000000000000051
:101F90000000000000000000000000000000000041
:101FA000000000000000FF0F000000000000000023
:101FB0000000000000000000FF0F00000000000013
:101FC0000000000000000000000000000000000011
:101FD0000000000000000000000000000000000001
:101FE00000000000000000000000000000000000F1
:101FF00000000000000000000000000000000000E1
:10200000000000000000FF0F0000000000000000C2
:102010000000000000000000FF0F000000000000B2
:1020200000000000000000000000000000000000B0
:1020300000000000000000000000000000000000A0
:102040000000000000000000000000000000000090
:102050000000000000000000000000000000000080
:10206000000000000000FF0F000000000000000062
:102070000000000000000000FF0F00000000000052
:102080000000000000000000000000000000000050
:102090000000000000000000000000000000000040
:1020A0000000000000000000000000000000000030
:1020B0000000000000000000000000000000000020
:1020C000000000000000000000000000FF0F000002
:1020D0000000FF0F000000000000000000000000F2
:1020E00000000000000000000000000000000000F0
:1020F00000000000000000000000000000000000E0
:1021000000000000000000000000000000000000CF
:1021100000000000000000000000000000000000BF
:10212000000000000000FF0F0000000000000000A1
:102130000000000000000000FF0F00000000000091
:10214000000000000000000000000000000000008F
:10215000000000000000000000000000000000007F
:10216000000000000000000000000000000000006F
:10217000000000000000000000000000000000005F
:10218000000000000000FF0F000000000000000041
:102190000000000000000000FF0F00000000000031
:1021A000000000000000000000000000000000002F
:1021B000000000000000000000000000000000001F
:1021C000000000000000000000000000000000000F
:1021D00000000000000000000000000000000000FF
:1021E000000000000000FF0F0000000000000000E1
:1021F0000000000000000000FF0F000000000000D1
:1022000000000000000000000000000000000000CE
:1022100000000000000000000000000000000000BE
:1022200000000000000000000000000000000000AE
:10223000000000000000000000000000000000009E
:10224000000000000000FF0F00000000FF0F000072
:102250000000FF0F00000000FF0F00000000000062
:10226000000000000000000000000000000000006E
:10227000000000000000000000000000000000005E
:10228000000000000000000000000000000000004E
:10229000000000000000000000000000000000003E
:1022A000000000000000FF0F000000000000000020
:1022B0000000FF0F00000000FF0F00000000000002
:1022C000000000000000000000000000000000000E
:1022D00000000000000000000000000000000000FE
:1022E00000000000000000000000000000000000EE
:1022F00000000000000000000000000000000000DE
:10230000000000000000FF0F0000000000000000BF
:102310000000000000000000FF0F000000000000AF
:1023200000000000000000000000000000000000AD
:10233000000000000000000000000000000000009D
:10234000000000000000000000000000000000008D
:10235000000000000000000000000000000000007D
:10236000000000000000FF0F00000000000000005F
:102370000000000000000000FF0F0000000000004F
:10238000000000000000000000000000000000004D
:10239000000000000000000000000000000000003D
:1023A000000000000000000000000000000000002D
:1023B000000000000000000000000000000000001D
:1023C000000000000000FF0F0000000000000000FF
:1023D0000000000000000000FF0F000000000000EF
:1023E00000000000000000000000000000000000ED
:1023F00000000000000000000000000000000000DD
:1024000000000000000000000000000000000000CC
:1024100000000000000000000000000000000000BC
:10242000000000000000000000000000FF0F00009E
:102430000000FF0F0000000000000000000000008E
:10244000000000000000000000000000000000008C
:10245000000000000000000000000000000000007C
:10246000000000000000000000000000000000006C
:10247000000000000000000000000000000000005C
:10248000000000000000000000000000FF0F00003E
:102490000000FF0F0000000000000000000000002E
:1024A000000000000000000000000000000000002C
:1024B000000000000000000000000000000000001C
:1024C000000000000000000000000000000000000C
:1024D00000000000000000000000000000000000FC
:1024E000000000000000FF0F0000000000000000DE
:1024F0000000000000000000FF0F000000000000CE
:1025000000000000000000000000000000000000CB
:1025100000000000000000000000000000000000BB
:1025200000000000000000000000000000000000AB
:10253000000000000000000000000000000000009B
:10254000000000000000000000000000FF0F00007D
:10255000000000000000000000000000000000007B
:10256000000000000000000000000000000000006B
:10257000000000000000000000000000000000005B
:10258000000000000000000000000000000000004B
:10259000000000000000000000000000000000003B
:1025A000000000000000FF0F00000000FF0F00000F
:1025B0000000FF0F00000000FF0F000000000000FF
:1025C000000000000000000000000000000000000B
:1025D00000000000000000000000000000000000FB
:1025E00000000000000000000000000000000000EB
:1025F00000000000000000000000000000000000DB
:10260000000000000000FF0F0000000000000000BC
:102610000000000000000000FF0F000000000000AC
:1026200000000000000000000000000000000000AA
:10263000000000000000000000000000000000009A
:10264000000000000000000000000000000000008A
:10265000000000000000000000000000000000007A
:10266000000000000000FF0F00000000000000005C
:102670000000000000000000FF0F0000000000004C
:10268000000000000000000000000000000000004A
:10269000000000000000000000000000000000003A
:1026A000000000000000000000000000000000002A
:1026B000000000000000000000000000000000001A
:1026C000000000000000FF0F00000000FF0F0000EE
:1026D0000000FF0F00000000FF0F000000000000DE
:1026E00000000000000000000000000000000000EA
:1026F00000000000000000000000000000000000DA
:1027000000000000000000000000000000000000C9
:1027100000000000000000000000000000000000B9
:10272000000000000000000000000000FF0F00009B
:102730000000000000000000000000000000000099
:102740000000000000000000000000000000000089
:102750000000000000000000000000000000000079
:102760000000000000000000000000000000000069
:102770000000000000000000000000000000000059
:102780000000000000000000000000000000000049
:102790000000FF0F0000000000000000000000002B
:1027A0000000000000000000000000000000000029
:1027B0000000000000000000000000000000000019
:1027C0000000000000000000000000000000000009
:1027D00000000000000000000000000000000000F9
:1027E000000000000000FF0F00000000FF0F0000CD
:1027F0000000FF0F00000000FF0FFF0F00000000AF
:10280000FF0F00000000FF0F00000000FF0F00009E
:102810000000FF0F00000000FF0F00000000FF0F8E
:1028200000000000FF0F00000000FF0F000000008C
:10283000FF0F00000000FF0F00000000FF0F00006E
:102840000000FF0F00000000FF0F00000000FF0F5E
:1028500000000000FF0F00000000FF0F000000005C
:10286000FF0F00000000FF0F00000000FF0F00003E
:102870000000FF0F00000000FF0F00000000FF0F2E
:1028800000000000FF0F00000000FF0F000000002C
:10289000FF0F00000000FF0F00000000FF0F00000E
:1028A0000000FF0F00000000FF0F00000000FF0FFE
:1028B00000000000FF0F00000000FF0F00000000FC
:1028C000FF0F00000000FF0F00000000FF0F0000DE
:1028D0000000FF0F00000000FF0F00000000FF0FCE
:1028E00000000000FF0F00000000FF0F00000000CC
:1028F000FF0F00000000FF0F00000000FF0F0000AE
:102900000000FF0F00000000FF0F00000000FF0F9D
:1029100000000000FF0F00000000FF0F000000009B
:10292000FF0F00000000FF0F00000000FF0F00007D
:102930000000FF0F00000000FF0F00000000FF0F6D
:1029400000000000FF0F00000000FF0F000000006B
:10295000FF0F00000000FF0F00000000FF0F00004D
:102960000000FF0F00000000FF0F00000000FF0F3D
:1029700000000000FF0F0000000000000000FF0F3B
:1029800000000000FF0F00000000FF0F000000002B
:10299000FF0F00000000FF0F00000000FF0F00000D
:1029A0000000FF0F00000000FF0F00000000FF0FFD
:1029B00000000000FF0F00000000FF0F00000000FB
:1029C000FF0F00000000FF0F00000000FF0F0000DD
:1029D0000000FF0F00000000FF0F00000000FF0FCD
:1029E00000000000FF0F00000000FF0F00000000CB
:1029F000FF0F00000000FF0F00000000FF0F0000AD
:102A00000000FF0F00000000FF0F00000000FF0F9C
:102A100000000000FF0F00000000FF0F000000009A
:102A2000FF0F00000000FF0F00000000FF0F00007C
:102A30000000FF0F00000000FF0F00000000FF0F6C
:102A400000000000FF0F00000000FF0F000000006A
:102A5000FF0F00000000FF0F00000000FF0F00004C
:102A60000000FF0F00000000FF0F00000000FF0F3C
:102A700000000000FF0F00000000FF0F000000003A
:102A8000FF0F00000000FF0F00000000FF0F00001C
:102A90000000FF0F00000000FF0F00000000FF0F0C
:102AA00000000000FF0F00000000FF0F000000000A
:102AB000FF0F00000000FF0F00000000FF0F0000EC
:102AC0000000FF0F00000000FF0F00000000FF0FDC
:102AD00000000000FF0F00000000FF0F00000000DA
:102AE000FF0F00000000FF0F00000000FF0F0000BC
:102AF0000000FF0F00000000FF0F0000FF0F0000AC
:102B00000000FF0F00000000FF0F00000000FF0F9B
:102B100000000000FF0F00000000FF0F0000000099
:102B2000FF0F00000000FF0F00000000FF0F00007B
:102B30000000FF0F00000000FF0F00000000FF0F6B
:102B400000000000FF0F00000000FF0F0000000069
:102B5000FF0F00000000FF0F00000000FF0F00004B
:102B60000000FF0F00000000FF0F00000000FF0F3B
:102B700000000000FF0F00000000FF0F0000000039
:102B8000FF0F00000000FF0F00000000FF0F00001B
:102B90000000FF0F00000000FF0F00000000FF0F0B
:102BA00000000000FF0F00000000FF0F0000000009
:102BB000FF0F00000000FF0F00000000FF0F0000EB
:102BC0000000FF0F00000000FF0F00000000FF0FDB
:102BD00000000000FF0F00000000FF0F00000000D9
:102BE000FF0F00000000FF0F00000000FF0F0000BB
:102BF0000000FF0F00000000FF0F00000000FF0FAB
:102C000000000000FF0F00000000FF0F00000000A8
:102C1000FF0F00000000FF0F00000000FF0F00008A
:102C20000000FF0F00000000FF0F00000000FF0F7A
:102C300000000000FF0F00000000FF0F0000000078
:102C4000FF0F00000000FF0F00000000FF0F00005A
:102C50000000FF0F00000000FF0F00000000FF0F4A
:102C600000000000FF0F00000000FF0F0000000048
:102C7000FF0F00000000FF0F000000000000000038
:102C80000000000000000000000000000000000044
:102C90000000000000000000000000000000000034
:102CA0000000000000000000000000000000000024
:102CB0000000000000000000000000000000000014
:102CC0000000000000000000000000000000000004
:102CD00000000000000000000000000000000000F4
:102CE00000000000000000000000000000000000E4
:102CF00000000000000000000000000000000000D4
:102D000000000000000000000000000000000000C3
:102D100000000000000000000000000000000000B3
:102D200000000000000000000000000000000000A3
:102D30000000000000000000000000000000000093
:102D40000000000000000000000000000000000083
:102D50000000000000000000000000000000000073
:102D60000000000000000000000000000000000063
:102D70000000000000000000000000000000000053
:102D80000000000000000000000000000000000043
:102D90000000000000000000000000000000000033
:102DA0000000000000000000000000000000000023
:102DB0000000000000000000000000000000000013
:102DC0000000000000000000000000000000000003
:102DD00000000000000000000000000000000000F3
:102DE0000000FF0F00000000FF0F00000000FF0FB9
:102DF00000000000FF0F00000000000000000000C5
:102E000000000000000000000000000000000000C2
:102E100000000000000000000000000000000000B2
:102E200000000000000000000000000000000000A2
:102E30000000000000000000000000000000000092
:102E40000000000000000000000000000000000082
:102E50000000000000000000000000000000000072
:102E60000000000000000000000000000000000062
:102E70000000000000000000000000000000000052
:102E80000000000000000000000000000000000042
:102E90000000000000000000000000000000000032
:102EA0000000000000000000000000000000000022
:102EB0000000000000000000000000000000000012
:102EC0000000000000000000000000000000000002
:102ED00000000000000000000000000000000000F2
:102EE00000000000000000000000000000000000E2
:102EF00000000000000000000000000000000000D2
:102F000000000000000000000000000000000000C1
:102F100000000000000000000000000000000000B1
:102F200000000000000000000000000000000000A1
:102F30000000000000000000000000000000000091
:102F400000000000000000000000FF0F0000000073
:102F5000FF0F00000000FF0F00000000FF0F000047
:102F600000000000FF0F00000000FF0F0000000045
:102F7000FF0F00000000FF0F000000000000000035
:102F80000000000000000000000000000000000041
:102F90000000000000000000000000000000000031
:102FA0000000000000000000000000000000000021
:102FB0000000000000000000000000000000000011
:102FC0000000000000000000000000000000000001
:102FD00000000000000000000000000000000000F1
:102FE00000000000000000000000000000000000E1
:102FF00000000000000000000000000000000000D1
:1030000000000000000000000000000000000000C0
:1030100000000000000000000000000000000000B0
:1030200000000000000000000000000000000000A0
:103030000000000000000000000000000000000090
:103040000000000000000000000000000000000080
:103050000000000000000000000000000000000070
:103060000000000000000000000000000000000060
:103070000000000000000000000000000000000050
:103080000000000000000000000000000000000040
:103090000000000000000000000000000000000030
:1030A0000000000000000000000000000000000020
:1030B0000000FF0F00000000FF0F00000000FF0FE6
:1030C00000000000FF0F000000000000FF0F0000E4
:1030D0000000FF0F00000000FF0F00000000FF0FC6
:1030E000000000000000FF0F00000000FF0F0000C4
:1030F0000000FF0F00000000FF0F000000000000B4
:1031000000000000000000000000000000000000BF
:1031100000000000000000000000000000000000AF
:10312000000000000000000000000000000000009F
:10313000000000000000000000000000000000008F
:10314000000000000000000000000000000000007F
:10315000000000000000000000000000000000006F
:10316000000000000000000000000000000000005F
:10317000000000000000000000000000000000004F
:10318000000000000000000000000000000000003F
:10319000000000000000000000000000000000002F
:1031A000000000000000000000000000000000001F
:1031B000000000000000000000000000000000000F
:1031C00000000000000000000000000000000000FF
:1031D00000000000000000000000000000000000EF
:1031E00000000000000000000000000000000000DF
:1031F00000000000000000000000000000000000CF
:1032000000000000000000000000000000000000BE
:1032100000000000000000000000FF0F00000000A0
:10322000FF0F00000000FF0F00000000FF0F000074
:1032300000000000FF0F00000000FF0F0000000072
:10324000FF0F00000000FF0F000000000000FF0F54
:1032500000000000FF0F00000000FF0F0000000052
:10326000FF0FFF0F00000000FF0F00000000FF0F26
:1032700000000000FF0F0000000000000000000040
:10328000000000000000000000000000000000003E
:10329000000000000000000000000000000000002E
:1032A000000000000000000000000000000000001E
:1032B000000000000000000000000000000000000E
:1032C00000000000000000000000000000000000FE
:1032D00000000000000000000000000000000000EE
:1032E00000000000000000000000000000000000DE
:1032F00000000000000000000000000000000000CE
:1033000000000000000000000000000000000000BD
:1033100000000000000000000000000000000000AD
:10332000000000000000000000000000000000009D
:10333000000000000000000000000000000000008D
:10334000000000000000000000000000000000007D
:10335000000000000000000000000000000000006D
:10336000000000000000000000000000000000005D
:10337000000000000000000000000000000000004D
:103380000000FF0F00000000FF0F00000000FF0F13
:1033900000000000FF0F000000000000FF0F000011
:1033A0000000FF0F00000000FF0F00000000FF0FF3
:1033B000000000000000FF0F00000000FF0F0000F1
:1033C0000000FF0F00000000FF0FFF0F00000000D3
:1033D000FF0F00000000FF0F00000000FF0F0000C3
:1033E00000000000FF0F00000000FF0F00000000C1
:1033F000FF0F00000000FF0F0000000000000000B1
:1034000000000000000000000000000000000000BC
:1034100000000000000000000000000000000000AC
:10342000000000000000000000000000000000009C
:10343000000000000000000000000000000000008C
:10344000000000000000000000000000000000007C
:10345000000000000000000000000000000000006C
:10346000000000000000000000000000000000005C
:10347000000000000000000000000000000000004C
:10348000000000000000000000000000000000003C
:10349000000000000000000000000000000000002C
:1034A000000000000000000000000000000000001C
:1034B000000000000000000000000000000000000C
:1034C00000000000000000000000000000000000FC
:1034D00000000000000000000000000000000000EC
:1034E00000000000000000000000FF0F00000000CE
:1034F000FF0F00000000FF0F00000000FF0F0000A2
:1035000000000000FF0F00000000FF0F000000009F
:10351000FF0F00000000FF0F000000000000FF0F81
:1035200000000000FF0F00000000FF0F000000007F
:10353000FF0FFF0F00000000FF0F00000000FF0F53
:1035400000000000FF0F000000000000FF0F00005F
:103550000000FF0F00000000FF0F00000000FF0F41
:10356000000000000000FF0F00000000FF0F00003F
:103570000000FF0F00000000FF0F0000000000002F
:10358000000000000000000000000000000000003B
:10359000000000000000000000000000000000002B
:1035A000000000000000000000000000000000001B
:1035B000000000000000000000000000000000000B
:1035C00000000000000000000000000000000000FB
:1035D00000000000000000000000000000000000EB
:1035E00000000000000000000000000000000000DB
:1035F00000000000000000000000000000000000CB
:1036000000000000000000000000000000000000BA
:1036100000000000000000000000000000000000AA
:10362000000000000000000000000000000000009A
:10363000000000000000000000000000000000008A
:10364000000000000000000000000000000000007A
:103650000000FF0F00000000FF0F00000000FF0F40
:1036600000000000FF0F000000000000FF0F00003E
:103670000000FF0F00000000FF0F00000000FF0F20
:10368000000000000000FF0F00000000FF0F00001E
:103690000000FF0F00000000FF0FFF0F0000000000
:1036A000FF0F00000000FF0F00000000FF0F0000F0
:1036B00000000000FF0F00000000FF0F00000000EE
:1036C000FF0F00000000FF0F000000000000FF0FD0
:1036D00000000000FF0F00000000FF0F00000000CE
:1036E000FF0FFF0F00000000FF0F00000000FF0FA2
:1036F00000000000FF0F00000000000000000000BC
:1037000000000000000000000000000000000000B9
:1037100000000000000000000000000000000000A9
:103720000000000000000000000000000000000099
:103730000000000000000000000000000000000089
:103740000000000000000000000000000000000079
:103750000000000000000000000000000000000069
:103760000000000000000000000000000000000059
:103770000000000000000000000000000000000049
:103780000000000000000000000000000000000039
:103790000000000000000000000000000000000029
:1037A0000000000000000000000000000000000019
:1037B00000000000000000000000FF0F00000000FB
:1037C000FF0F00000000FF0F00000000FF0F0000CF
:1037D00000000000FF0F00000000FF0F00000000CD
:1037E000FF0F00000000FF0F000000000000FF0FAF
:1037F00000000000FF0F00000000FF0F00000000AD
:10380000FF0FFF0F00000000FF0F00000000FF0F80
:1038100000000000FF0F000000000000FF0F00008C
:103820000000FF0F00000000FF0F00000000FF0F6E
:10383000000000000000FF0F00000000FF0F00006C
:103840000000FF0F00000000FF0FFF0F000000004E
:10385000FF0F00000000FF0F00000000FF0F00003E
:1038600000000000FF0F00000000FF0F000000003C
:10387000FF0F00000000FF0F00000000000000002C
:103880000000000000000000000000000000000038
:103890000000000000000000000000000000000028
:1038A0000000000000000000000000000000000018
:1038B0000000000000000000000000000000000008
:1038C00000000000000000000000000000000000F8
:1038D00000000000000000000000000000000000E8
:1038E00000000000000000000000000000000000D8
:1038F00000000000000000000000000000000000C8
:1039000000000000000000000000000000000000B7
:1039100000000000000000000000000000000000A7
:103920000000FF0F00000000FF0F00000000FF0F6D
:1039300000000000FF0F000000000000FF0F00006B
:103940000000FF0F00000000FF0F00000000FF0F4D
:10395000000000000000FF0F00000000FF0F00004B
:103960000000FF0F00000000FF0FFF0F000000002D
:10397000FF0F00000000FF0F00000000FF0F00001D
:1039800000000000FF0F00000000FF0F000000001B
:10399000FF0F00000000FF0F000000000000FF0FFD
:1039A00000000000FF0F00000000FF0F00000000FB
:1039B000FF0FFF0F00000000FF0F00000000FF0FCF
:1039C00000000000FF0F000000000000FF0F0000DB
:1039D0000000FF0F00000000FF0F00000000FF0FBD
:1039E000000000000000FF0F00000000FF0F0000BB
:1039F0000000FF0F00000000FF0F000000000000AB
:103A000000000000000000000000000000000000B6
:103A100000000000000000000000000000000000A6
:103A20000000000000000000000000000000000096
:103A30000000000000000000000000000000000086
:103A40000000000000000000000000000000000076
:103A50000000000000000000000000000000000066
:103A60000000000000000000000000000000000056
:103A70000000000000000000000000000000000046
:103A800000000000000000000000FF0F0000000028
:103A9000FF0F00000000FF0F00000000FF0F0000FC
:103AA00000000000FF0F00000000FF0F00000000FA
:103AB000FF0F00000000FF0F000000000000FF0FDC
:103AC00000000000FF0F00000000FF0F00000000DA
:103AD000FF0FFF0F00000000FF0F00000000FF0FAE
:103AE00000000000FF0F000000000000FF0F0000BA
:103AF0000000FF0F00000000FF0F00000000FF0F9C
:103B0000000000000000FF0F00000000FF0F000099
:103B10000000FF0F00000000FF0FFF0F000000007B
:103B2000FF0F00000000FF0F00000000FF0F00006B
:103B300000000000FF0F00000000FF0F0000000069
:103B4000FF0F00000000FF0F000000000000FF0F4B
:103B500000000000FF0F00000000FF0F0000000049
:103B6000FF0FFF0F00000000FF0F00000000FF0F1D
:103B700000000000FF0F0000000000000000000037
:103B80000000000000000000000000000000000035
:103B90000000000000000000000000000000000025
:103BA0000000000000000000000000000000000015
:103BB0000000000000000000000000000000000005
:103BC00000000000000000000000000000000000F5
:103BD00000000000000000000000000000000000E5
:103BE00000000000000000000000000000000000D5
:103BF0000000FF0F00000000FF0F00000000FF0F9B
:103C000000000000FF0F000000000000FF0F000098
:103C10000000FF0F00000000FF0F00000000FF0F7A
:103C2000000000000000FF0F00000000FF0F000078
:103C30000000FF0F00000000FF0FFF0F000000005A
:103C4000FF0F00000000FF0F00000000FF0F00004A
:103C500000000000FF0F00000000FF0F0000000048
:103C6000FF0F00000000FF0F000000000000FF0F2A
:103C700000000000FF0F00000000FF0F0000000028
:103C8000FF0FFF0F00000000FF0F00000000FF0FFC
:103C900000000000FF0F000000000000FF0F000008
:103CA0000000FF0F00000000FF0F00000000FF0FEA
:103CB000000000000000FF0F00000000FF0F0000E8
:103CC0000000FF0F00000000FF0FFF0F00000000CA
:103CD000FF0F00000000FF0F00000000FF0F0000BA
:103CE00000000000FF0F00000000FF0F00000000B8
:103CF000FF0F00000000FF0F0000000000000000A8
:103D000000000000000000000000000000000000B3
:103D100000000000000000000000000000000000A3
:103D20000000000000000000000000000000000093
:103D30000000000000000000000000000000000083
:103D40000000000000000000000000000000000073
:103D500000000000000000000000FF0F0000000055
:103D6000FF0F00000000FF0F00000000FF0F000029
:103D700000000000FF0F00000000FF0F0000000027
:103D8000FF0F00000000FF0F000000000000FF0F09
:103D900000000000FF0F00000000FF0F0000000007
:103DA000FF0FFF0F00000000FF0F00000000FF0FDB
:103DB00000000000FF0F000000000000FF0F0000E7
:103DC0000000FF0F00000000FF0F00000000FF0FC9
:103DD000000000000000FF0F00000000FF0F0000C7
:103DE0000000FF0F00000000FF0FFF0F00000000A9
:103DF000FF0F00000000FF0F00000000FF0F000099
:103E000000000000FF0F00000000FF0F0000000096
:103E1000FF0F00000000FF0F000000000000FF0F78
:103E200000000000FF0F00000000FF0F0000000076
:103E3000FF0FFF0F00000000FF0F00000000FF0F4A
:103E400000000000FF0F000000000000FF0F000056
:103E50000000FF0F00000000FF0F00000000FF0F38
:103E6000000000000000FF0F00000000FF0F000036
:103E70000000FF0F00000000FF0F00000000000026
:103E80000000000000000000000000000000000032
:103E90000000000000000000000000000000000022
:103EA0000000000000000000000000000000000012
:103EB0000000000000000000000000000000000002
:103EC0000000FF0F00000000FF0F00000000FF0FC8
:103ED00000000000FF0F000000000000FF0F0000C6
:103EE0000000FF0F00000000FF0F00000000FF0FA8
:103EF000000000000000FF0F00000000FF0F0000A6
:103F00000000FF0F00000000FF0FFF0F0000000087
:103F1000FF0F00000000FF0F00000000FF0F000077
:103F200000000000FF0F00000000FF0F0000000075
:103F3000FF0F00000000FF0F000000000000FF0F57
:103F400000000000FF0F00000000FF0F0000000055
:103F5000FF0FFF0F00000000FF0F00000000FF0F29
:103F600000000000FF0F000000000000FF0F000035
:103F70000000FF0F00000000FF0F00000000FF0F17
:103F8000000000000000FF0F00000000FF0F000015
:103F90000000FF0F00000000FF0FFF0F00000000F7
:103FA000FF0F00000000FF0F00000000FF0F0000E7
:103FB00000000000FF0F00000000FF0F00000000E5
:103FC000FF0F00000000FF0F000000000000FF0FC7
:103FD00000000000FF0F00000000FF0F00000000C5
:103FE000FF0FFF0F00000000FF0F00000000FF0F99
:103FF00000000000FF0F00000000000000000000B3
:1040000000000000000000000000000000000000B0
:1040100000000000000000000000000000000000A0
:1040200000000000000000000000FF0F0000000082
:10403000FF0F00000000FF0F00000000FF0F000056
:1040400000000000FF0F00000000FF0F0000000054
:10405000FF0F00000000FF0F000000000000FF0F36
:1040600000000000FF0F00000000FF0F0000000034
:10407000FF0FFF0F00000000FF0F00000000FF0F08
:1040800000000000FF0F000000000000FF0F000014
:104090000000FF0F00000000FF0F00000000FF0FF6
:1040A000000000000000FF0F00000000FF0F0000F4
:1040B0000000FF0F00000000FF0FFF0F00000000D6
:1040C000FF0F00000000FF0F00000000FF0F0000C6
:1040D00000000000FF0F00000000FF0F00000000C4
:1040E000FF0F00000000FF0F000000000000FF0FA6
:1040F00000000000FF0F00000000FF0F00000000A4
:10410000FF0FFF0F00000000FF0F00000000FF0F77
:1041100000000000FF0F000000000000FF0F000083
:104120000000FF0F00000000FF0F00000000FF0F65
:10413000000000000000FF0F00000000FF0F000063
:104140000000FF0F00000000FF0FFF0F0000000045
:10415000FF0F00000000FF0F00000000FF0F000035
:1041600000000000FF0F00000000FF0F0000000033
:10417000FF0F00000000FF0F000000000000000023
:10418000000000000000000000000000000000002F
:104190000000FF0F00000000FF0F00000000FF0FF5
:1041A00000000000FF0F000000000000FF0F0000F3
:1041B0000000FF0F00000000FF0F00000000FF0FD5
:1041C000000000000000FF0F00000000FF0F0000D3
:1041D0000000FF0F00000000FF0FFF0F00000000B5
:1041E000FF0F00000000FF0F00000000FF0F0000A5
:1041F00000000000FF0F00000000FF0F00000000A3
:10420000FF0F00000000FF0F000000000000FF0F84
:1042100000000000FF0F00000000FF0F0000000082
:10422000FF0FFF0F00000000FF0F00000000FF0F56
:1042300000000000FF0F000000000000FF0F000062
:104240000000FF0F00000000FF0F00000000FF0F44
:10425000000000000000FF0F00000000FF0F000042
:104260000000FF0F00000000FF0FFF0F0000000024
:10427000FF0F00000000FF0F00000000FF0F000014
:1042800000000000FF0F00000000FF0F0000000012
:10429000FF0F00000000FF0F000000000000FF0FF4
:1042A00000000000FF0F00000000FF0F00000000F2
:1042B000FF0FFF0F00000000FF0F00000000FF0FC6
:1042C00000000000FF0F000000000000FF0F0000D2
:1042D0000000FF0F00000000FF0F00000000FF0FB4
:1042E000000000000000FF0F00000000FF0F0000B2
:1042F0000000FF0F00000000FF0FFF0F0000000094
:10430000FF0F00000000FF0F00000000FF0F000083
:1043100000000000FF0F00000000FF0F0000000081
:10432000FF0F00000000FF0F000000000000FF0F63
:1043300000000000FF0F00000000FF0F0000000061
:10434000FF0FFF0F00000000FF0F00000000FF0F35
:1043500000000000FF0F000000000000FF0F000041
:104360000000FF0F00000000FF0F00000000FF0F23
:10437000000000000000FF0F00000000FF0F000021
:104380000000FF0F00000000FF0FFF0F0000000003
:10439000FF0F00000000FF0F00000000FF0F0000F3
:1043A00000000000FF0F00000000FF0F00000000F1
:1043B000FF0F00000000FF0F000000000000FF0FD3
:1043C00000000000FF0F00000000FF0F00000000D1
:1043D000FF0FFF0F00000000FF0F00000000FF0FA5
:1043E00000000000FF0F000000000000FF0F0000B1
:1043F0000000FF0F00000000FF0F00000000FF0F93
:10440000000000000000FF0F00000000FF0F000090
:104410000000FF0F00000000FF0FFF0F0000000072
:10442000FF0F00000000FF0F00000000FF0F000062
:1044300000000000FF0F00000000FF0F0000000060
:10444000FF0F00000000FF0F000000000000FF0F42
:1044500000000000FF0F00000000FF0F0000000040
:10446000FF0FFF0F00000000FF0F00000000FF0F14
:1044700000000000FF0F00000000FF0FFF0FFF0F04
:10448000FF0FFF0FFF0FFF0FFF0FFF0FFF0FFF0FBC
:10449000FF0FFF0FFF0FFF0FFF0FFF0FFF0FFF0FAC
:1044A000FF0FFF0FFF0FFF0FFF0FFF0FFF0FFF0F9C
:1044B000FF0FFF0FFF0FFF0FFF0FFF0FFF0FFF0F8C
:1044C000FF0FFF0FFF0FFF0FFF0FFF0FFF0FFF0F7C
:1044D000FF0FFF0FFF0FFF0FFF0FFF0FFF0FFF0F6C
:1044E000FF0FFF0FFF0FFF0FFF0FFF0FFF0FFF0F5C
:1044F000FF0FFF0FFF0FFF0FFF0FFF0FFF0FFF0F4C
:10450000FF0FFF0FFF0FFF0FFF0FFF0FFF0FFF0F3B
:10451000FF0FFF0FFF0FFF0FFF0FFF0FFF0FFF0F2B
:10452000FF0FFF0FFF0FFF0FFF0FFF0FFF0FFF0F1B
:10453000FF0FFF0FFF0FFF0FFF0FFF0FFF0FFF0F0B
:10454000FF0FFF0FFF0FFF0FFF0FFF0FFF0FFF0FFB
:10455000FF0FFF0FFF0FFF0FFF0FFF0FFF0FFF0FEB
:10456000FF0FFF0FFF0FFF0FFF0FFF0FFF0FFF0FDB
:10457000FF0FFF0FFF0FFF0FFF0FFF0FFF0FFF0FCB
:10458000FF0FFF0FFF0FFF0FFF0FFF0FFF0FFF0FBB
:10459000FF0FFF0FFF0FFF0FFF0FFF0FFF0FFF0FAB
:1045A000FF0FFF0FFF0FFF0FFF0FFF0FFF0FFF0F9B
:1045B000FF0FFF0FFF0FFF0FFF0FFF0FFF0FFF0F8B
:1045C000FF0FFF0FFF0FFF0FFF0FFF0FFF0FFF0F7B
:1045D000FF0FFF0FFF0FFF0FFF0FFF0FFF0FFF0F6B
:1045E000FF0FFF0FFF0FFF0FFF0FFF0FFF0FFF0F5B
:1045F000FF0FFF0FFF0FFF0FFF0F00000000240051
:1046000027002A000000000023002600290029348A
:10461000193411241FBECFEFD8E0DEBFCDBF11E0AB
:10462000A0E0B1E0E2EBF0E702C005900D92A63504
:10463000B107D9F723E0A6E5B1E001C01D92A33888
:10464000B207E1F713E2C8E0D3E204C02197FE010C
:104650000E942636C730D107C9F70E9483280C94E0
:104660004C380C9400003FB7F8948091560190911B
:104670005701A0915801B091590126B5A89B05C0DA
:104680002F3F19F00196A11DB11D3FBFBA2FA92FD1
:10469000982F8827820F911DA11DB11DBC01CD014E
:1046A00042E0660F771F881F991F4A95D1F708953A
:1046B0000E94373890E0FC01EA51FF4F3491FC0131
:1046C000EE52FF4F2491FC01E254FF4FE491EE23A0
:1046D00009F43BC0332339F1333091F038F43130F1
:1046E000A9F0323001F584B58F7D12C0373091F0DA
:1046F0003830A1F03430B9F4809180008F7D03C050
:10470000809180008F77809380000DC084B58F7773
:1047100084BD09C08091B0008F7703C08091B00044
:104720008F7D8093B000F0E0EE0FFF1FEC54FF4F41
:10473000A591B4918FB7F894EC91611103C02095C5
:104740002E2301C02E2B2C938FBF089520915C0146
:1047500030915D012817390771F490915A018091C9
:104760005B01981741F0E0915A01F0E0ED5DFC4FDC
:10477000808190E008958FEF9FEF089508951F9333
:10478000CF93DF93DC015C962D913C915D972115D1
:10479000310539F481E090E013969C938E93129743
:1047A0003DC05196ED91FC91529750969C91509737
:1047B000892F80951FB75E964C915E9741FB7727B6
:1047C00070F941FD6095F8944081772311F0492BF1
:1047D00001C048234083E9012197F1F748E0508167
:1047E00060FF02C0592B01C058235083E901219773
:1047F000F1F76695415099F7772321F0908189234D
:10480000808303C08081982B90831FBF5C968D911D
:104810009C915D970197F1F721E030E0C901DF91AC
:10482000CF911F91089520915C0130915D0128176F
:10483000390771F480915B0120915A0190E0805C0E
:104840009F4F821B910960E470E00E941236089528
:1048500080E090E0089520915C0130915D0128177F
:104860003907B9F490915A0180915B01981789F04A
:10487000E0915A01F0E0ED5DFC4F808120915A01FA
:1048800030E02F5F3F4F2F73332720935A0190E082
:1048900008958FEF9FEF0895089580E090E00895C8
:1048A0001F920F920FB60F9211242F933F938F9365
:1048B0009F93AF93BF9380915E0190915F01A09110
:1048C0006001B09161013091630323E0230F2D3724
:1048D00020F40196A11DB11D05C026E8230F029604
:1048E000A11DB11D2093630380935E0190935F012E
:1048F000A0936001B093610180915601909157019E
:10490000A0915801B09159010196A11DB11D80934C
:10491000560190935701A0935801B0935901BF914C
:10492000AF919F918F913F912F910F900FBE0F905C
:104930001F9018951F920F920FB60F9211242F936C
:104940003F934F935F936F937F938F939F93AF9317
:10495000BF93EF93FF93E0915C01F0915D0130977D
:1049600009F451C0968DA685B785858591FF04C051
:104970009C91892329F447C09C91892309F043C065
:10498000A389B4899C918589809589238C93868994
:1049900097890197F1F7608D718DA685B78555854B
:1049A00038E020E0CB010197F1F7822F90E0959558
:1049B0008795282F4C91452309F02068315091F7B5
:1049C000868D81FD209580915B0190E001968F732B
:1049D000992730915A01381749F0A0915B01B0E056
:1049E000AD5DBC4F2C9380935B0103C0868D8160CD
:1049F000868F828D938D0197F1F7A389B4899C915D
:104A00008589892B8C93FF91EF91BF91AF919F91F5
:104A10008F917F916F915F914F913F912F910F9067
:104A20000FBE0F901F901895E0915C01F0915D0111
:104A3000E817F90769F4A389B4899C918589809561
:104A400089238C9310925D0110925C0181E008959E
:104A500080E008951F920F920FB60F9211242F93AA
:104A60003F934F935F936F937F938F939F93AF93F6
:104A7000BF93EF93FF9380E28093800010926F00CA
:104A800010927D03E0912103F0912203309711F001
:104A900078940995FF91EF91BF91AF919F918F917C
:104AA0007F916F915F914F913F912F910F900FBE2A
:104AB0000F901F9018952F923F925F926F927F9266
:104AC0008F929F92AF92BF92CF92DF92EF92FF921E
:104AD0000F931F93CF93DF93A090E202B090E30275
:104AE00080900B0390900C039694982C88249794B4
:104AF0008794E12CF12C40E050E060E3562E370122
:104B0000680C791C60E070E000E010E0549EE00169
:104B1000559ED00D1124C801860D971D8A0D9B1D31
:104B2000A0E0B0E0FC01C590D4909D01260F371F96
:104B3000F901ED5CFE4FE0811E012E0E311CF101EA
:104B4000EE0FFF1FEE59FE4FD182C082FC0132965C
:104B5000C590D490F901ED5DFE4FE0811E012E0E4F
:104B6000311CF101EE0FFF1FEE59FE4FD182C082C2
:104B7000FC013496C590D490F901ED5EFE4F208182
:104B8000FE01E20FF11DEE0FFF1FEE59FE4FD18225
:104B9000C08211960696A430B10509F0C3CF085E15
:104BA0001F4F6C5F7F4F6031710509F0B4CF4F5FCD
:104BB0005F4F80E2E80EF11C4430510509F09FCFB1
:104BC000DF91CF911F910F91FF90EF90DF90CF90E9
:104BD000BF90AF909F908F907F906F905F903F902D
:104BE0002F9008954F925F926F927F928F929F9233
:104BF000AF92BF92CF92DF92EF92FF920F931F93EB
:104C0000CF93DF937C018B01EA0170E3D72E1E1452
:104C10001F04ACF564E070E080E090E00E945F2843
:104C20002B013C0164E070E080E090E00E945F288E
:104C30004B015C0164E070E080E090E00E945F283E
:104C4000880C991C880C991C680D791DFB01ED5C82
:104C5000FE4F8081D49CF001D59CF00D1124E80F0B
:104C6000F11DEE0FFF1FEE59FE4F8091E40290916F
:104C7000E5029183808381E0E81AF108C8CF40E320
:104C8000B42E10161106A4F564E070E080E090E008
:104C90000E945F282B013C0164E070E080E090E01E
:104CA0000E945F286B017C0164E070E080E090E08E
:104CB0000E945F28CC0CDD1CCC0CDD1C6C0D7D1D16
:104CC000FB01ED5DFE4F8081B49CF001B59CF00DC1
:104CD0001124E80FF11DEE0FFF1FEE59FE4F8091DA
:104CE000E4029091E5029183808301501109C9CFBC
:104CF00010E31C161D06A4F564E070E080E090E06F
:104D00000E945F286B017C0164E070E080E090E02D
:104D10000E945F284B015C0164E070E080E090E05D
:104D20000E945F28880C991C880C991CC401860F6E
:104D3000971FFC01ED5EFE4F80811C9DF0011D9DC3
:104D4000F00D1124E80FF11DEE0FFF1FEE59FE4F7D
:104D50008091E4029091E502918380832197C9CFED
:104D600010920C0310920B03DF91CF911F910F91C2
:104D7000FF90EF90DF90CF90BF90AF909F908F907B
:104D80007F906F905F904F900895CF93DF938091C5
:104D9000110390911203A2E6B1E0C8EAD1E0EEE778
:104DA000F1E09D8B8C8B99838883938F828F958F75
:104DB000848F9B8B8A8B9B838A83938B828B958B2F
:104DC000848B17969C938E93169751969C938E93F3
:104DD0005097918780879587848719969C938E93A7
:104DE000189755969C938E935497918380839583BF
:104DF0008483A05ABF4FC05ADF4FE05AFF4F22E0D2
:104E0000A23EB20771F6DF91CF910895CF93DF9361
:104E100080910F0390911003E2E6F1E0A2EAB1E085
:104E2000C4E8D1E05F969C938E935E971F969C9307
:104E30008E931E9711969C938E939D8F8C8F579671
:104E40009C938E93569753969C938E935297159658
:104E50009C938E931497998B888B918380839787EB
:104E60008687978B868B99838883938382839587A4
:104E70008487938F828F978F868FE05AFF4FA05A37
:104E8000BF4FC05ADF4F22E0E23EF20759F6DF91F2
:104E9000CF910895CF93DF9380910D0390910E03EE
:104EA00042E651E0ECE9F1E0CAE7D1E0938F828F6E
:104EB000938B828B91878087918380839A01245A78
:104EC0003F4FD9018D939C93918B808B9D8F8C8FBD
:104ED00093838283DA011B969C938E931A97978B08
:104EE000868B9B8B8A8B9D8B8C8B15969C938E933C
:104EF000149753969C938E935297998388839F8798
:104F00008E87405A5F4FE05AFF4FC05ADF4FB2E0E2
:104F1000423E5B0759F6DF91CF910895CF92DF9221
:104F2000EF92FF920F931F93CF93DF936C017A015F
:104F30008B01C0E0D0E0CE15DF0589F0D8016D917E
:104F40008D01D601ED91FC910190F081E02DC6011B
:104F50000995892B11F47E0102C02196ECCFC7017F
:104F6000DF91CF911F910F91FF90EF90DF90CF9045
:104F7000089580917D0381112EC090E2909380006E
:104F800090917E03992319F010927E0302C02D9A0E
:104F90002D98E4E6F3E090819EBD0DB407FEFDCFB1
:104FA00091819EBD0DB407FEFDCF3396DF011197B1
:104FB0009C919EBD0DB407FEFDCF93E0EC37F90741
:104FC00050F391E090937D0320EA20938000B09A03
:104FD00090936F00089581E008959FE0981B892FBA
:104FE00093E0899FF0011124F695E795EC59FC4F69
:104FF00080FF05C08081807F872B80830CC0CB0120
:1050000024E0969587952A95E1F7808381818F70BA
:105010006295607F682B618308950F931F93CF93F0
:10502000DF93EC0188819981009729F02A813B81E7
:105030002617370788F48B016F5F7F4F0E946D370B
:10504000009761F0998388831B830A832C813D81BB
:10505000232B11F4FC01108281E001C080E0DF917C
:10506000CF911F910F910895EF92FF920F931F938D
:10507000CF93DF93EC017B018A01BA010E940D28D6
:105080002881398181110DC02115310519F0C9011F
:105090000E94D536198218821D821C821B821A82B8
:1050A00006C01D830C83B701C9010E944538CE019B
:1050B000DF91CF911F910F91FF90EF900895CF93C3
:1050C000DF9300D000D0CDB7DEB761157105810543
:1050D000910579F09B01AC0169833A834B835C8332
:1050E0000E942E3529813A814B815C810E9478355E
:1050F00003C060E070E0CB010F900F900F900F9015
:10510000DF91CF910895CF93DF93CDB7DEB72E9780
:105110000FB6F894DEBF0FBECDBF789484B5826021
:1051200084BD84B5816084BD85B5826085BD85B54B
:10513000816085BD80916E00816080936E001092C9
:105140008100809181008260809381008091810044
:1051500081608093810080918000816080938000D5
:105160008091B10084608093B1008091B000816033
:105170008093B00080917A00846080937A0080915F
:105180007A00826080937A0080917A0081608093B7
:105190007A0080917A00806880937A001092C10032
:1051A0008CE387B988B9219A229A539A2A9A239A2A
:1051B000259A229A2D9881E08DBD80E58CBDE4E68C
:1051C000F3E0108211823396DF0111971C9203E005
:1051D000EC37F007B0F30E94B92780E2809380009B
:1051E00010926F0010927D03299A29988093800075
:1051F00080E18093810081E090E09093890080932A
:10520000880082E090E090938B0080938A0080E099
:1052100090E2909387008093860083E28093B000B1
:1052200088E08093B1001092B40083E08093B300D3
:105230008091B10081608093B10080918100816094
:10524000809381000E94B9278AEF9FE090930E031C
:1052500080930D039093100380930F039093120398
:1052600080931103109213031092180322E631E089
:1052700080E090E0F901E80FF91F11821082029698
:1052800080369105B9F7205A3F4F12E0223E310790
:1052900079F780EA9FE09093E5028093E402109210
:1052A0000703109206031092050310920403109254
:1052B0000303109202038DE991E090930903809318
:1052C00008039091F802963108F057C02DEB30E0BA
:1052D00030930303209302032BE931E0309305035D
:1052E000209304032CE231E030930703209306035C
:1052F00020916800983050F031E09E3008F430E0A2
:1053000081E001C0880F3A95EAF701C084E0822B62
:1053100080936800983038F09E3040F0963148F025
:1053200020E030E008C02DE630E005C02BE630E09C
:1053300002C02CE630E0309300032093FF02983047
:1053400030F481E001C0880F9A95EAF70EC0292F4A
:1053500030E09E3018F42850310902C02E50310937
:1053600081E001C0880F2A95EAF7809301038091BC
:105370000803909109030197F1F78091060390913A
:105380000703892B21F180915C0190915D0122E05E
:105390008C3E9207E1F0009711F00E941425809155
:1053A0000A038E7F80930A0310925B0110925A01C8
:1053B0008CEE92E090935D0180935C01E091FF029E
:1053C000F0910003908180910103892B808330E369
:1053D000532E0E94332300911D0310911E03209130
:1053E0001F0330912003DC01CB01801B910BA20B2A
:1053F000B30B8C3A9D40A105B10510F40C94853394
:105400000E94332360931D0370931E0380931F0338
:10541000909320038FB7F89440915E0150915F0103
:1054200060916001709161018FBF8091190390912B
:105430001A03A0911B03B0911C03481B590B6A0B64
:105440007B0B8091030190910401A0E0B0E048172C
:1054500059076A077B0710F40C94163322E631E0F3
:1054600080E090E0F901E80FF91F118210820296A6
:1054700080369105B9F7205A3F4F82E0223E380727
:1054800079F7E09118038E2F90E08A30910510F0A3
:105490000C94E732FC01EC5CFF4F0C942636E09153
:1054A0000B03F0910C03309731F48FE791E0909368
:1054B000020180930101CF01E034F10514F08FE384
:1054C00090E05C0197FF03C0AFE0AA0EB11C24E09E
:1054D000B594A7942A95E1F760E170E00E94123636
:1054E0003C012091E4023091E50260E070E0A616F4
:1054F000B7060CF484C040E050E0569E8001579EF1
:10550000100D1124641675068CF0DA01AD5CBE4FE7
:10551000AC9118012A0E311CD101AA0FBB1FAE5944
:10552000BE4F2D933C934F5F5F4FECCF61157105DC
:1055300009F462C004E711E056E9852E51E0952E8A
:1055400042E651E0E12CF12C6A0184E5C80ED11C41
:10555000D6012D933C936A01BCE5CB0ED11CD6013C
:105560002D933C93DA011B963C932E931A97159634
:105570003C932E931497D40159963C932E935897AD
:1055800057963C932E9356975D963C932E935C973B
:10559000D8012D933C93D4011F963C932E931E97D4
:1055A0002D933C93D80159963C932E935897DA014A
:1055B00059963C932E935897D40117963C932E936B
:1055C000169719963C932E931897D8015B963C93A7
:1055D0002E935A9755963C932E935497BFEFEB1A00
:1055E000FB0A405A5F4F005A1F4F80E6880E911CFD
:1055F000E616F7060CF4A8CF6F5F7F4F78CFE03444
:10560000F10508F4ECC7CF01CF978034910514F071
:105610008FE390E08C0197FF02C0015F1F4F44E0D1
:10562000159507954A95E1F760E170E00E94123602
:1056300060E070E0061717070CF481C040E050E00E
:10564000569E7001579EF00C1124841795078CF01C
:10565000DA01AD5DBE4FAC9117012A0E311CD101AC
:10566000AA0FBB1FAE59BE4F2D933C934F5F5F4FA8
:10567000ECCF6115710509F45FC042EA51E0A4E87E
:10568000EA2EA1E0FA2EB2E6AB2EB1E0BB2EC12C81
:10569000D12CDA015F963C932E935E9757963C93FC
:1056A0002E935697D50111963C932E9313963C93C7
:1056B0002E931297DA011F963C932E931E975396C2
:1056C0003C932E935297D5011F963C932E931E9791
:1056D0001D963C932E931C97DA0111963C932E93C2
:1056E00015963C932E931497D50157963C932E9381
:1056F00056975B963C932E935A97D7015D963C93B1
:105700002E935C9751963C932E9350972D933C93F8
:10571000D5015F963C932E935E97BFEFCB1ADB0AC1
:10572000A0E6AA0EB11C405A5F4FB0E6EB0EF11C8A
:10573000C616D7060CF4ADCF6F5F7F4F7BCFE03836
:10574000F10508F44CC7CF018F57910980349105BA
:1057500014F08FE390E08C0197FF02C0015F1F4FB0
:1057600044E0159507954A95E1F760E170E00E94E5
:10577000123640E050E0041715070CF480C060E0DA
:1057800070E0549E7001559EF00C11248617970707
:105790008CF0DB01AD5EBE4FAC9117012A0E311CBF
:1057A000D101AA0FBB1FAE59BE4F2D933C936F5F23
:1057B0007F4FECCF4115510509F45EC068EA71E0F6
:1057C000AEE7AA2EA1E0BA2EB2E6EB2EB1E0FB2E98
:1057D000C12CD12CDB0155963C932E9354975396B4
:1057E0003C932E935297D70117963C932E9316977E
:1057F00019963C932E931897DB0111963C932E93A8
:1058000013963C932E931297D70151963C932E9367
:10581000509755963C932E935497D5015B963C93A5
:105820002E935A9753963C932E93529719963C93E6
:105830002E93189711963C932E935D963C932E933E
:105840005C9755963C932E9354971D963C932E93BC
:105850001C9715963C932E931497BFEFCB1ADB0A37
:10586000A0E6EA0EF11C605A7F4FB0E6AB0EB11C09
:10587000C416D5060CF4AECF4F5F5F4F7CCFE03C33
:10588000F10508F4ACC6CF018F5B91098034910516
:1058900014F08FE390E08C0197FF02C0015F1F4F6F
:1058A000580104E0B594A7940A95E1F760E170E02F
:1058B0000E94123640E050E0A416B5060CF484C0F5
:1058C00020E030E0549EB001559E700D11248217E7
:1058D00093078CF0D901AD5CBE4FAC911B012A0E31
:1058E000311CD101AA0FBB1FAE59BE4F1D921C9295
:1058F0002F5F3F4FECCF4115510509F462C064E7BB
:1059000071E036E9832E31E0932E22E631E0E12C7E
:10591000F12C690104E5C00ED11CD6011D921C9228
:105920006901BCE5CB0ED11CD6011D921C92D90198
:105930001B961C921E921A9715961C921E921497F3
:10594000D40159961C921E92589757961C921E92FB
:1059500056975D961C921E925C97DB011D921C92DD
:10596000D4011F961C921E921E971D921C92DB0161
:1059700059961C921E925897D90159961C921E92C4
:105980005897D40117961C921E92169719961C923E
:105990001E921897DB015B961C921E925A975596A1
:1059A0001C921E925497BFEFEB1AFB0A205A3F4FEE
:1059B000605A7F4F00E6800E911CE416F5060CF449
:1059C000A8CF4F5F5F4F78CFEF3FF10509F008F4A4
:1059D00006C6CF018F5F91098034910514F08FE3E3
:1059E00090E08C0197FF02C0015F1F4F24E01595E6
:1059F00007952A95E1F760E170E00E94123640E0D9
:105A000050E0041715070CF47EC020E030E0549EEF
:105A1000B001559E700D1124821793078CF0D901A7
:105A2000AD5DBE4FAC911B012A0E311CD101AA0FF6
:105A3000BB1FAE59BE4F1D921C922F5F3F4FECCF44
:105A40004115510509F45CC022EA31E064E871E0D7
:105A5000A2E6CA2EA1E0DA2EE12CF12CD9015F9644
:105A60001C921E925E9757961C921E925697D601D4
:105A700011961C921E9213961C921E921297D90197
:105A80001F961C921E921E9753961C921E9252971E
:105A9000D6011F961C921E921E971D961C921E9256
:105AA0001C97D90111961C921E9215961C921E925B
:105AB0001497D60157961C921E9256975B961C928D
:105AC0001E925A97DB015D961C921E925C9751962E
:105AD0001C921E9250971D921C92D6015F961C92AA
